{
  "address": "0x2279B7A0a67DB372996a5FaB50D91eAA73d2eBe6",
  "abi": [
    {
      "inputs": [
        {
          "internalType": "contract Fisch",
          "name": "_nftCollateralAddress",
          "type": "address"
        }
      ],
      "stateMutability": "nonpayable",
      "type": "constructor"
    },
    {
      "inputs": [],
      "name": "LoanIsLocked",
      "type": "error"
    },
    {
      "inputs": [],
      "name": "LoanNotActive",
      "type": "error"
    },
    {
      "inputs": [
        {
          "internalType": "address",
          "name": "sender",
          "type": "address"
        },
        {
          "internalType": "address",
          "name": "receiver",
          "type": "address"
        }
      ],
      "name": "SenderNotReceiver",
      "type": "error"
    },
    {
      "inputs": [],
      "name": "TransferFailed",
      "type": "error"
    },
    {
      "anonymous": false,
      "inputs": [
        {
          "indexed": false,
          "internalType": "uint256",
          "name": "lenderId",
          "type": "uint256"
        },
        {
          "indexed": false,
          "internalType": "uint256",
          "name": "borrowerId",
          "type": "uint256"
        },
        {
          "indexed": false,
          "internalType": "address",
          "name": "lender",
          "type": "address"
        },
        {
          "indexed": false,
          "internalType": "address",
          "name": "borrower",
          "type": "address"
        },
        {
          "indexed": false,
          "internalType": "uint256",
          "name": "amount",
          "type": "uint256"
        },
        {
          "indexed": false,
          "internalType": "address",
          "name": "liquidator",
          "type": "address"
        }
      ],
      "name": "CollateralLiquidated",
      "type": "event"
    },
    {
      "anonymous": false,
      "inputs": [
        {
          "indexed": false,
          "internalType": "uint256",
          "name": "currentAvailableLendAmount",
          "type": "uint256"
        },
        {
          "indexed": false,
          "internalType": "uint256",
          "name": "innitialLendAmount",
          "type": "uint256"
        },
        {
          "indexed": false,
          "internalType": "address",
          "name": "lender",
          "type": "address"
        },
        {
          "indexed": false,
          "internalType": "uint256",
          "name": "loanId",
          "type": "uint256"
        }
      ],
      "name": "FundsAdded",
      "type": "event"
    },
    {
      "anonymous": false,
      "inputs": [
        {
          "indexed": false,
          "internalType": "uint256",
          "name": "lenderId",
          "type": "uint256"
        },
        {
          "indexed": false,
          "internalType": "uint256",
          "name": "borrowerId",
          "type": "uint256"
        },
        {
          "indexed": false,
          "internalType": "address",
          "name": "lender",
          "type": "address"
        },
        {
          "indexed": false,
          "internalType": "address",
          "name": "borrower",
          "type": "address"
        },
        {
          "indexed": false,
          "internalType": "uint256",
          "name": "amount",
          "type": "uint256"
        }
      ],
      "name": "LoanApproved",
      "type": "event"
    },
    {
      "anonymous": false,
      "inputs": [
        {
          "indexed": false,
          "internalType": "uint256",
          "name": "borrowId",
          "type": "uint256"
        },
        {
          "indexed": false,
          "internalType": "uint256",
          "name": "amount",
          "type": "uint256"
        },
        {
          "indexed": false,
          "internalType": "uint256",
          "name": "lenderId",
          "type": "uint256"
        },
        {
          "indexed": false,
          "internalType": "address",
          "name": "lender",
          "type": "address"
        },
        {
          "indexed": false,
          "internalType": "address",
          "name": "borrower",
          "type": "address"
        }
      ],
      "name": "LoanBorrowed",
      "type": "event"
    },
    {
      "anonymous": false,
      "inputs": [
        {
          "indexed": false,
          "internalType": "uint256",
          "name": "lenderId",
          "type": "uint256"
        },
        {
          "indexed": false,
          "internalType": "address",
          "name": "lender",
          "type": "address"
        },
        {
          "indexed": false,
          "internalType": "uint256",
          "name": "amount",
          "type": "uint256"
        },
        {
          "indexed": false,
          "internalType": "bool",
          "name": "isActive",
          "type": "bool"
        }
      ],
      "name": "LoanCancelled",
      "type": "event"
    },
    {
      "anonymous": false,
      "inputs": [
        {
          "indexed": false,
          "internalType": "uint256",
          "name": "amount",
          "type": "uint256"
        },
        {
          "indexed": false,
          "internalType": "uint256",
          "name": "lenderId",
          "type": "uint256"
        },
        {
          "indexed": false,
          "internalType": "address",
          "name": "lender",
          "type": "address"
        }
      ],
      "name": "LoanCreated",
      "type": "event"
    },
    {
      "anonymous": false,
      "inputs": [
        {
          "indexed": false,
          "internalType": "uint256",
          "name": "loanId",
          "type": "uint256"
        },
        {
          "indexed": false,
          "internalType": "bool",
          "name": "isActive",
          "type": "bool"
        },
        {
          "indexed": false,
          "internalType": "bool",
          "name": "locked",
          "type": "bool"
        }
      ],
      "name": "LoanDeactivated",
      "type": "event"
    },
    {
      "anonymous": false,
      "inputs": [
        {
          "indexed": false,
          "internalType": "uint256",
          "name": "lenderId",
          "type": "uint256"
        },
        {
          "indexed": false,
          "internalType": "uint256",
          "name": "borrowerId",
          "type": "uint256"
        },
        {
          "indexed": false,
          "internalType": "address",
          "name": "lender",
          "type": "address"
        },
        {
          "indexed": false,
          "internalType": "address",
          "name": "borrower",
          "type": "address"
        },
        {
          "indexed": false,
          "internalType": "uint256",
          "name": "amount",
          "type": "uint256"
        }
      ],
      "name": "LoanRepayed",
      "type": "event"
    },
    {
      "anonymous": false,
      "inputs": [
        {
          "indexed": true,
          "internalType": "address",
          "name": "previousOwner",
          "type": "address"
        },
        {
          "indexed": true,
          "internalType": "address",
          "name": "newOwner",
          "type": "address"
        }
      ],
      "name": "OwnershipTransferred",
      "type": "event"
    },
    {
      "stateMutability": "payable",
      "type": "fallback"
    },
    {
      "inputs": [],
      "name": "PRIVATE_SALE",
      "outputs": [
        {
          "internalType": "bytes32",
          "name": "",
          "type": "bytes32"
        }
      ],
      "stateMutability": "view",
      "type": "function"
    },
    {
      "inputs": [],
      "name": "PUBLIC_SALE",
      "outputs": [
        {
          "internalType": "bytes32",
          "name": "",
          "type": "bytes32"
        }
      ],
      "stateMutability": "view",
      "type": "function"
    },
    {
      "inputs": [
        {
          "internalType": "uint256",
          "name": "_loanId",
          "type": "uint256"
        }
      ],
      "name": "addfunds",
      "outputs": [],
      "stateMutability": "payable",
      "type": "function"
    },
    {
      "inputs": [
        {
          "internalType": "uint256",
          "name": "_borrowerId",
          "type": "uint256"
        }
      ],
      "name": "approveLoan",
      "outputs": [],
      "stateMutability": "nonpayable",
      "type": "function"
    },
    {
      "inputs": [
        {
          "internalType": "uint256",
          "name": "_lenderId",
          "type": "uint256"
        },
        {
          "internalType": "uint256",
          "name": "_borrowAmount",
          "type": "uint256"
        },
        {
          "internalType": "uint256",
          "name": "_nftCollateralTokenId",
          "type": "uint256"
        },
        {
          "internalType": "address",
          "name": "receiverAddress",
          "type": "address"
        }
      ],
      "name": "borrow",
      "outputs": [],
      "stateMutability": "nonpayable",
      "type": "function"
    },
    {
      "inputs": [
        {
          "internalType": "uint256",
          "name": "pricipalAmount",
          "type": "uint256"
        },
        {
          "internalType": "uint256",
          "name": "interestRate",
          "type": "uint256"
        },
        {
          "internalType": "uint256",
          "name": "durationMonths",
          "type": "uint256"
        }
      ],
      "name": "calculateLoanInterest",
      "outputs": [
        {
          "internalType": "uint256",
          "name": "si",
          "type": "uint256"
        }
      ],
      "stateMutability": "pure",
      "type": "function"
    },
    {
      "inputs": [
        {
          "internalType": "uint256",
          "name": "_lenderId",
          "type": "uint256"
        }
      ],
      "name": "cancelLoan",
      "outputs": [],
      "stateMutability": "nonpayable",
      "type": "function"
    },
    {
      "inputs": [
        {
          "internalType": "uint256",
          "name": "_noOfMonth",
          "type": "uint256"
        }
      ],
      "name": "convertMonthsToWeeks",
      "outputs": [
        {
          "internalType": "uint256",
          "name": "noOfweeks",
          "type": "uint256"
        }
      ],
      "stateMutability": "pure",
      "type": "function"
    },
    {
      "inputs": [
        {
          "internalType": "uint256",
          "name": "noOfWeeks",
          "type": "uint256"
        }
      ],
      "name": "convertWeeksToSeconds",
      "outputs": [
        {
          "internalType": "uint256",
          "name": "secondsByWeeks",
          "type": "uint256"
        }
      ],
      "stateMutability": "pure",
      "type": "function"
    },
    {
      "inputs": [
        {
          "internalType": "uint256",
          "name": "_interestRate",
          "type": "uint256"
        },
        {
          "internalType": "uint256",
          "name": "_loanOutDuration",
          "type": "uint256"
        },
        {
          "internalType": "uint256",
          "name": "_loanDurationMonthCount",
          "type": "uint256"
        }
      ],
      "name": "createOrListLoan",
      "outputs": [],
      "stateMutability": "payable",
      "type": "function"
    },
    {
      "inputs": [
        {
          "internalType": "uint256",
          "name": "_loanId",
          "type": "uint256"
        }
      ],
      "name": "deActivateLoan",
      "outputs": [],
      "stateMutability": "payable",
      "type": "function"
    },
    {
      "inputs": [],
      "name": "defaultInterestRate",
      "outputs": [
        {
          "internalType": "uint256",
          "name": "",
          "type": "uint256"
        }
      ],
      "stateMutability": "view",
      "type": "function"
    },
    {
      "inputs": [
        {
          "internalType": "uint256",
          "name": "_borrowId",
          "type": "uint256"
        }
      ],
      "name": "fetchBorrowSingle",
      "outputs": [
        {
          "components": [
            {
              "internalType": "uint256",
              "name": "borrowerId",
              "type": "uint256"
            },
            {
              "internalType": "address",
              "name": "borrower",
              "type": "address"
            },
            {
              "internalType": "uint256",
              "name": "innitialBorrowAmount",
              "type": "uint256"
            },
            {
              "internalType": "uint256",
              "name": "currentBorrowAmount",
              "type": "uint256"
            },
            {
              "internalType": "uint256",
              "name": "amountAlreadyRemitted",
              "type": "uint256"
            },
            {
              "internalType": "uint256",
              "name": "deadline",
              "type": "uint256"
            },
            {
              "internalType": "uint256",
              "name": "interest",
              "type": "uint256"
            },
            {
              "internalType": "uint256",
              "name": "lenderId",
              "type": "uint256"
            },
            {
              "internalType": "uint256",
              "name": "nftCollateralTokenId",
              "type": "uint256"
            },
            {
              "internalType": "address",
              "name": "receiverAddress",
              "type": "address"
            },
            {
              "internalType": "bool",
              "name": "isApproved",
              "type": "bool"
            },
            {
              "internalType": "bool",
              "name": "isRepaid",
              "type": "bool"
            }
          ],
          "internalType": "struct Loan.Borrower",
          "name": "",
          "type": "tuple"
        }
      ],
      "stateMutability": "view",
      "type": "function"
    },
    {
      "inputs": [
        {
          "internalType": "uint256",
          "name": "_loanId",
          "type": "uint256"
        }
      ],
      "name": "fetchLoanSingle",
      "outputs": [
        {
          "components": [
            {
              "internalType": "uint256",
              "name": "loanId",
              "type": "uint256"
            },
            {
              "internalType": "uint256",
              "name": "innitialLendAmount",
              "type": "uint256"
            },
            {
              "internalType": "uint256",
              "name": "currentAvailableLendAmount",
              "type": "uint256"
            },
            {
              "internalType": "uint256",
              "name": "amountRepaid",
              "type": "uint256"
            },
            {
              "internalType": "uint256",
              "name": "borrowerId",
              "type": "uint256"
            },
            {
              "internalType": "uint256",
              "name": "interestRate",
              "type": "uint256"
            },
            {
              "internalType": "uint256",
              "name": "loanOutDuration",
              "type": "uint256"
            },
            {
              "internalType": "bool",
              "name": "locked",
              "type": "bool"
            },
            {
              "internalType": "bool",
              "name": "isActive",
              "type": "bool"
            },
            {
              "internalType": "address",
              "name": "lender",
              "type": "address"
            },
            {
              "internalType": "uint256",
              "name": "loanDurationInMonthCount",
              "type": "uint256"
            }
          ],
          "internalType": "struct Loan.Lender",
          "name": "",
          "type": "tuple"
        }
      ],
      "stateMutability": "view",
      "type": "function"
    },
    {
      "inputs": [
        {
          "internalType": "uint256",
          "name": "_borrowerId",
          "type": "uint256"
        },
        {
          "internalType": "bytes",
          "name": "_saleType",
          "type": "bytes"
        }
      ],
      "name": "liquidateCollateral",
      "outputs": [],
      "stateMutability": "payable",
      "type": "function"
    },
    {
      "inputs": [],
      "name": "nftCollateral",
      "outputs": [
        {
          "internalType": "contract Fisch",
          "name": "",
          "type": "address"
        }
      ],
      "stateMutability": "view",
      "type": "function"
    },
    {
      "inputs": [],
      "name": "owner",
      "outputs": [
        {
          "internalType": "address",
          "name": "",
          "type": "address"
        }
      ],
      "stateMutability": "view",
      "type": "function"
    },
    {
      "inputs": [],
      "name": "renounceOwnership",
      "outputs": [],
      "stateMutability": "nonpayable",
      "type": "function"
    },
    {
      "inputs": [
        {
          "internalType": "uint256",
          "name": "_borrowerId",
          "type": "uint256"
        }
      ],
      "name": "repayLoan",
      "outputs": [],
      "stateMutability": "payable",
      "type": "function"
    },
    {
      "inputs": [
        {
          "internalType": "address",
          "name": "newOwner",
          "type": "address"
        }
      ],
      "name": "transferOwnership",
      "outputs": [],
      "stateMutability": "nonpayable",
      "type": "function"
    },
    {
      "stateMutability": "payable",
      "type": "receive"
    }
  ],
  "transactionHash": "0x435f49b3958da1b1b72210aa5c3df33c0b03ebfd0c0eee8403a5d964f7dea819",
  "args": [
    "0xa513E6E4b8f2a923D98304ec87F64353C4D5C853"
  ],
  "numDeployments": 1,
  "solcInputHash": "2385d847d65228402754807aa166c15e",
  "bytecode": "0x6080604052600c600255600560035534801561001a57600080fd5b5060405162001b4638038062001b4683398101604081905261003b916100bd565b6100443361006d565b60018055600680546001600160a01b0319166001600160a01b03929092169190911790556100ed565b600080546001600160a01b038381166001600160a01b0319831681178455604051919092169283917f8be0079c531659141344cd1fd0a4f28419497f9722a3daafe3b4186f6b6457e09190a35050565b6000602082840312156100cf57600080fd5b81516001600160a01b03811681146100e657600080fd5b9392505050565b611a4980620000fd6000396000f3fe6080604052600436106101175760003560e01c80638da5cb5b1161009a578063bd857bad11610061578063bd857bad146102e4578063bdbfa3de14610304578063d5622c7a14610324578063e6cb85a714610344578063f2fde38b1461035757005b80638da5cb5b1461024a57806398c83a161461027c578063aadc1ac114610291578063ab7b1c89146102b1578063b1032e75146102c457005b8063715018a6116100de578063715018a6146101cc5780637223be95146101e157806376a5213d1461020e57806386c1c74d146102215780638d8601421461023757005b80630fe41d2d146101205780631ec33cdd14610133578063242011d5146101695780635f89584e146101895780636e1b7925146101ac57005b3661011e57005b005b61011e61012e36600461167a565b610377565b34801561013f57600080fd5b5061015361014e36600461167a565b610439565b6040516101609190611693565b60405180910390f35b34801561017557600080fd5b5061011e610184366004611753565b610568565b34801561019557600080fd5b5061019e6108b9565b604051908152602001610160565b3480156101b857600080fd5b5061019e6101c736600461167a565b6108ed565b3480156101d857600080fd5b5061011e610902565b3480156101ed57600080fd5b506102016101fc36600461167a565b610916565b6040516101609190611794565b61011e61021c36600461167a565b610a23565b34801561022d57600080fd5b5061019e60035481565b61011e610245366004611824565b610b20565b34801561025657600080fd5b506000546001600160a01b03165b6040516001600160a01b039091168152602001610160565b34801561028857600080fd5b5061019e610cad565b34801561029d57600080fd5b5061011e6102ac36600461167a565b610ccd565b61011e6102bf36600461167a565b610fc9565b3480156102d057600080fd5b5061019e6102df36600461167a565b611164565b3480156102f057600080fd5b50600654610264906001600160a01b031681565b34801561031057600080fd5b5061011e61031f36600461167a565b611171565b34801561033057600080fd5b5061019e61033f366004611824565b611233565b61011e610352366004611866565b61125f565b34801561036357600080fd5b5061011e610372366004611921565b6113a2565b600081815260076020819052604090912001546201000090046001600160a01b03163381146103c15760405162461bcd60e51b81526004016103b890611945565b60405180910390fd5b6000828152600760208190526040808320909101805461ffff19169081905590517f27b64ce9f7477631f2ac2d64d101b3f2520c671769b24b0dbfe7aad08f9ad87f9261042d92869261010090910460ff16919092835290151560208301521515604082015260600190565b60405180910390a15050565b6104b36040518061018001604052806000815260200160006001600160a01b031681526020016000815260200160008152602001600081526020016000815260200160008152602001600081526020016000815260200160006001600160a01b031681526020016000151581526020016000151581525090565b506000908152600860208181526040928390208351610180810185528154815260018201546001600160a01b03908116938201939093526002820154948101949094526003810154606085015260048101546080850152600581015460a0850152600681015460c0850152600781015460e08501529182015461010084015260099091015490811661012083015260ff600160a01b820481161515610140840152600160a81b90910416151561016082015290565b6001600160a01b03811633146105a257604051637c48fd7760e11b81523360048201526001600160a01b03821660248201526044016103b8565b60008481526007602081905260409091200154610100900460ff166105da57604051630417bc2360e11b815260040160405180910390fd5b6000848152600760208190526040909120015460ff1661060d5760405163088e7d9560e21b815260040160405180910390fd5b60008481526007602052604081206005810154600890910154610631918691611233565b61063b9085611986565b905061064b600480546001019055565b600061065660045490565b9050604051806101800160405280828152602001336001600160a01b0316815260200183815260200160008152602001600081526020016000815260200160008152602001878152602001858152602001336001600160a01b0316815260200160001515815260200160001515815250600860008381526020019081526020016000206000820151816000015560208201518160010160006101000a8154816001600160a01b0302191690836001600160a01b0316021790555060408201518160020155606082015181600301556080820151816004015560a0820151816005015560c0820151816006015560e0820151816007015561010082015181600801556101208201518160090160006101000a8154816001600160a01b0302191690836001600160a01b031602179055506101408201518160090160146101000a81548160ff0219169083151502179055506101608201518160090160156101000a81548160ff0219169083151502179055509050507f2f2fa4b6641567f948e65b0a4104b370e8dd9766ee3b6cf99438b0f908df56356007600083815260200190815260200160002060000154600860008481526020019081526020016000206002015488600760008b815260200190815260200160002060070160029054906101000a90046001600160a01b03166008600087815260200190815260200160002060010160009054906101000a90046001600160a01b03166040516108a9959493929190948552602085019390935260408401919091526001600160a01b03908116606084015216608082015260a00190565b60405180910390a1505050505050565b6040516a5055424c49435f53414c4560a81b6020820152602b015b6040516020818303038152906040528051906020012081565b60006108fc8262093a8061199e565b92915050565b61090a611418565b6109146000611472565b565b6109806040518061016001604052806000815260200160008152602001600081526020016000815260200160008152602001600081526020016000815260200160001515815260200160001515815260200160006001600160a01b03168152602001600081525090565b50600090815260076020818152604092839020835161016081018552815481526001820154928101929092526002810154938201939093526003830154606082015260048301546080820152600583015460a0820152600683015460c08201529082015460ff808216151560e08401526101008083049091161515908301526201000090046001600160a01b031661012082015260089091015461014082015290565b600081815260076020819052604090912001546201000090046001600160a01b0316338114610a645760405162461bcd60e51b81526004016103b890611945565b600082815260076020526040812060028101805491923492610a87908490611986565b9250508190555034816001016000828254610aa29190611986565b90915550506002810154600182015460008581526007602081815260409283902090910154825194855290840192909252620100009091046001600160a01b031690820152606081018490527f0b6cf0e32a8f9281d882d68dd778489d19ecbfa2448d049fedda911c182320619060800160405180910390a1505050565b610b2e600580546001019055565b6000610b3960055490565b90506040518061016001604052808281526020013481526020013481526020016000815260200160008152602001858152602001848152602001600015158152602001600115158152602001336001600160a01b031681526020018360001415610ba557600254610ba7565b835b905260008281526007602081815260409283902084518155848201516001820181905585850151600283015560608087015160038401556080870151600484015560a0870151600584015560c0870151600684015560e08701519483018054610100808a01516101208b015161ffff1990931698151561ff00191698909817971515029690961762010000600160b01b031916620100006001600160a01b0397881681029190911791829055610140909801516008909401939093558551918252928101879052949004909116918301919091527f581f51c2b24b06d2a5e1f85b42d0d9cd4bb9506164d033f6146e21e35faa4aab91015b60405180910390a150505050565b6040516b505249564154455f53414c4560a01b6020820152602c016108d4565b610cd5611418565b610cdd6114c2565b600081815260086020526040902060098101546001600160a01b03163314610d2f576009810154604051637c48fd7760e11b81526001600160a01b0390911660048201523360248201526044016103b8565b60065460088201546040516331a9108f60e11b8152600481019190915233916001600160a01b031690636352211e9060240160206040518083038186803b158015610d7957600080fd5b505afa158015610d8d573d6000803e3d6000fd5b505050506040513d601f19601f82011682018060405250810190610db191906119bd565b6001600160a01b031614610dfe5760405162461bcd60e51b815260206004820152601460248201527329b2b73232b9103737ba1027232a1037bbb732b960611b60448201526064016103b8565b6006546008820154604051631af4f1b760e31b81526001600160a01b039092169163d7a78db891610e359160040190815260200190565b600060405180830381600087803b158015610e4f57600080fd5b505af1158015610e63573d6000803e3d6000fd5b505050506000600760008360070154815260200190815260200160002090508160020154816002016000828254610e9a91906119da565b92505081905550610eb16101c78260080154611164565b610ebb9042611986565b60058301556002820154600383018054600090610ed9908490611986565b9091555050600282015460405160009133918381818185875af1925050503d8060008114610f23576040519150601f19603f3d011682016040523d82523d6000602084013e610f28565b606091505b5050905080610f4a576040516312171d8360e31b815260040160405180910390fd5b600783810154908301546001850154600286015460408051948552602085018990526001600160a01b03620100009094048416908501529116606083015260808201527f0da39fecb301ec545e02d61d98a1bbb25e3c0065143ab4f75a74de6cdee433809060a00160405180910390a1505050610fc660018055565b50565b610fd16114c2565b60008181526008602090815260408083206007808201548552909252822060028101805492939192349290611007908490611986565b92505081905550348160030160008282546110229190611986565b925050819055503482600401600082825461103d9190611986565b925050819055503482600301600082825461105891906119da565b909155505060028201546004830154106110825760098201805460ff60a81b1916600160a81b1790555b6006546008830154604051633311fe2360e11b81526001600160a01b0390921691636623fc46916110b99160040190815260200190565b600060405180830381600087803b1580156110d357600080fd5b505af11580156110e7573d6000803e3d6000fd5b505050506007828101548354918301546001850154604080519384526020840194909452620100009091046001600160a01b039081168385015216606082015234608082015290517f8cfb4bbbef6e38ab280adc35e23333873cabe942691efabeb31540edc752501b9181900360a00190a15050610fc660018055565b60006108fc82600461199e565b600081815260076020819052604090912001546201000090046001600160a01b03163381146111b25760405162461bcd60e51b81526004016103b890611945565b600082815260076020818152604092839020918201805461ff0019169081905560019092015483518681526001600160a01b03620100008504169281019290925292810192909252610100900460ff16151560608201527f684b62b7cc6184a3cefa229c2fff1fff4c2f15bdcb6f3eff86846abf05d932959060800161042d565b60006104b082611243858761199e565b61124d919061199e565b61125791906119f1565b949350505050565b611267611418565b60006020820151905060008160405160200161128591815260200190565b6040516020818303038152906040528051906020012090506040516020016112be906a5055424c49435f53414c4560a81b8152600b0190565b604051602081830303815290604052805190602001208114156112e15750505050565b6000848152600860208190526040909120908101546007909101546113089190869061151c565b600084815260086020818152604080842060078082015480875281855283872090910154958a905293835260018101546002909101548251948552928401899052620100009094046001600160a01b0390811691840191909152909216606082015260808101919091523360a08201527f87390dbcb6edae20b6a7cdc35a4c70b99cc1c4c9fe48a847226a3b647aea619f9060c001610c9f565b6113aa611418565b6001600160a01b03811661140f5760405162461bcd60e51b815260206004820152602660248201527f4f776e61626c653a206e6577206f776e657220697320746865207a65726f206160448201526564647265737360d01b60648201526084016103b8565b610fc681611472565b6000546001600160a01b031633146109145760405162461bcd60e51b815260206004820181905260248201527f4f776e61626c653a2063616c6c6572206973206e6f7420746865206f776e657260448201526064016103b8565b600080546001600160a01b038381166001600160a01b0319831681178455604051919092169283917f8be0079c531659141344cd1fd0a4f28419497f9722a3daafe3b4186f6b6457e09190a35050565b600260015414156115155760405162461bcd60e51b815260206004820152601f60248201527f5265656e7472616e637947756172643a207265656e7472616e742063616c6c0060448201526064016103b8565b6002600155565b600654604051633311fe2360e11b8152600481018590526001600160a01b0390911690636623fc4690602401600060405180830381600087803b15801561156257600080fd5b505af1158015611576573d6000803e3d6000fd5b505050600083815260086020908152604080832085845260079092529182902060065460018301549351632142170760e11b81526001600160a01b03948516600482015233602482015260448101899052929450909216906342842e0e90606401600060405180830381600087803b1580156115f157600080fd5b505af1158015611605573d6000803e3d6000fd5b505050503481600201600082825461161d9190611986565b92505081905550348160030160008282546116389190611986565b925050819055503482600301600082825461165391906119da565b925050819055503482600401600082825461166e9190611986565b90915550505050505050565b60006020828403121561168c57600080fd5b5035919050565b815181526020808301516101808301916116b7908401826001600160a01b03169052565b5060408301516040830152606083015160608301526080830151608083015260a083015160a083015260c083015160c083015260e083015160e08301526101008084015181840152506101208084015161171b828501826001600160a01b03169052565b505061014083810151151590830152610160928301511515929091019190915290565b6001600160a01b0381168114610fc657600080fd5b6000806000806080858703121561176957600080fd5b84359350602085013592506040850135915060608501356117898161173e565b939692955090935050565b600061016082019050825182526020830151602083015260408301516040830152606083015160608301526080830151608083015260a083015160a083015260c083015160c083015260e08301516117f060e084018215159052565b5061010083810151151590830152610120808401516001600160a01b03169083015261014092830151929091019190915290565b60008060006060848603121561183957600080fd5b505081359360208301359350604090920135919050565b634e487b7160e01b600052604160045260246000fd5b6000806040838503121561187957600080fd5b82359150602083013567ffffffffffffffff8082111561189857600080fd5b818501915085601f8301126118ac57600080fd5b8135818111156118be576118be611850565b604051601f8201601f19908116603f011681019083821181831017156118e6576118e6611850565b816040528281528860208487010111156118ff57600080fd5b8260208601602083013760006020848301015280955050505050509250929050565b60006020828403121561193357600080fd5b813561193e8161173e565b9392505050565b60208082526011908201527029b2b73232b9103737ba102632b73232b960791b604082015260600190565b634e487b7160e01b600052601160045260246000fd5b6000821982111561199957611999611970565b500190565b60008160001904831182151516156119b8576119b8611970565b500290565b6000602082840312156119cf57600080fd5b815161193e8161173e565b6000828210156119ec576119ec611970565b500390565b600082611a0e57634e487b7160e01b600052601260045260246000fd5b50049056fea2646970667358221220330d269346b9eeda5c5429baff8c404b46303f355832bde61a42ed07a9cb843164736f6c63430008090033",
  "devdoc": {
    "kind": "dev",
    "methods": {
      "owner()": {
        "details": "Returns the address of the current owner."
      },
      "renounceOwnership()": {
        "details": "Leaves the contract without owner. It will not be possible to call `onlyOwner` functions anymore. Can only be called by the current owner. NOTE: Renouncing ownership will leave the contract without an owner, thereby removing any functionality that is only available to the owner."
      },
      "transferOwnership(address)": {
        "details": "Transfers ownership of the contract to a new account (`newOwner`). Can only be called by the current owner."
      }
    },
    "version": 1
  },
  "userdoc": {
    "kind": "user",
    "methods": {},
    "version": 1
  },
  "storageLayout": {
    "storage": [
      {
        "astId": 396,
        "contract": "contracts/Loan.sol:Loan",
        "label": "_owner",
        "offset": 0,
        "slot": "0",
        "type": "t_address"
      },
      {
        "astId": 4176,
        "contract": "contracts/Loan.sol:Loan",
        "label": "_status",
        "offset": 0,
        "slot": "1",
        "type": "t_uint256"
      },
      {
        "astId": 13668,
        "contract": "contracts/Loan.sol:Loan",
        "label": "_defaultLoanDuration",
        "offset": 0,
        "slot": "2",
        "type": "t_uint256"
      },
      {
        "astId": 13671,
        "contract": "contracts/Loan.sol:Loan",
        "label": "defaultInterestRate",
        "offset": 0,
        "slot": "3",
        "type": "t_uint256"
      },
      {
        "astId": 13694,
        "contract": "contracts/Loan.sol:Loan",
        "label": "_borrowersIds",
        "offset": 0,
        "slot": "4",
        "type": "t_struct(Counter)9218_storage"
      },
      {
        "astId": 13697,
        "contract": "contracts/Loan.sol:Loan",
        "label": "_lendersIds",
        "offset": 0,
        "slot": "5",
        "type": "t_struct(Counter)9218_storage"
      },
      {
        "astId": 13700,
        "contract": "contracts/Loan.sol:Loan",
        "label": "nftCollateral",
        "offset": 0,
        "slot": "6",
        "type": "t_contract(Fisch)13655"
      },
      {
        "astId": 13876,
        "contract": "contracts/Loan.sol:Loan",
        "label": "_lenders",
        "offset": 0,
        "slot": "7",
        "type": "t_mapping(t_uint256,t_struct(Lender)13734_storage)"
      },
      {
        "astId": 13881,
        "contract": "contracts/Loan.sol:Loan",
        "label": "_borrowers",
        "offset": 0,
        "slot": "8",
        "type": "t_mapping(t_uint256,t_struct(Borrower)13759_storage)"
      }
    ],
    "types": {
      "t_address": {
        "encoding": "inplace",
        "label": "address",
        "numberOfBytes": "20"
      },
      "t_bool": {
        "encoding": "inplace",
        "label": "bool",
        "numberOfBytes": "1"
      },
      "t_contract(Fisch)13655": {
        "encoding": "inplace",
        "label": "contract Fisch",
        "numberOfBytes": "20"
      },
      "t_mapping(t_uint256,t_struct(Borrower)13759_storage)": {
        "encoding": "mapping",
        "key": "t_uint256",
        "label": "mapping(uint256 => struct Loan.Borrower)",
        "numberOfBytes": "32",
        "value": "t_struct(Borrower)13759_storage"
      },
      "t_mapping(t_uint256,t_struct(Lender)13734_storage)": {
        "encoding": "mapping",
        "key": "t_uint256",
        "label": "mapping(uint256 => struct Loan.Lender)",
        "numberOfBytes": "32",
        "value": "t_struct(Lender)13734_storage"
      },
      "t_struct(Borrower)13759_storage": {
        "encoding": "inplace",
        "label": "struct Loan.Borrower",
        "members": [
          {
            "astId": 13736,
            "contract": "contracts/Loan.sol:Loan",
            "label": "borrowerId",
            "offset": 0,
            "slot": "0",
            "type": "t_uint256"
          },
          {
            "astId": 13738,
            "contract": "contracts/Loan.sol:Loan",
            "label": "borrower",
            "offset": 0,
            "slot": "1",
            "type": "t_address"
          },
          {
            "astId": 13740,
            "contract": "contracts/Loan.sol:Loan",
            "label": "innitialBorrowAmount",
            "offset": 0,
            "slot": "2",
            "type": "t_uint256"
          },
          {
            "astId": 13742,
            "contract": "contracts/Loan.sol:Loan",
            "label": "currentBorrowAmount",
            "offset": 0,
            "slot": "3",
            "type": "t_uint256"
          },
          {
            "astId": 13744,
            "contract": "contracts/Loan.sol:Loan",
            "label": "amountAlreadyRemitted",
            "offset": 0,
            "slot": "4",
            "type": "t_uint256"
          },
          {
            "astId": 13746,
            "contract": "contracts/Loan.sol:Loan",
            "label": "deadline",
            "offset": 0,
            "slot": "5",
            "type": "t_uint256"
          },
          {
            "astId": 13748,
            "contract": "contracts/Loan.sol:Loan",
            "label": "interest",
            "offset": 0,
            "slot": "6",
            "type": "t_uint256"
          },
          {
            "astId": 13750,
            "contract": "contracts/Loan.sol:Loan",
            "label": "lenderId",
            "offset": 0,
            "slot": "7",
            "type": "t_uint256"
          },
          {
            "astId": 13752,
            "contract": "contracts/Loan.sol:Loan",
            "label": "nftCollateralTokenId",
            "offset": 0,
            "slot": "8",
            "type": "t_uint256"
          },
          {
            "astId": 13754,
            "contract": "contracts/Loan.sol:Loan",
            "label": "receiverAddress",
            "offset": 0,
            "slot": "9",
            "type": "t_address"
          },
          {
            "astId": 13756,
            "contract": "contracts/Loan.sol:Loan",
            "label": "isApproved",
            "offset": 20,
            "slot": "9",
            "type": "t_bool"
          },
          {
            "astId": 13758,
            "contract": "contracts/Loan.sol:Loan",
            "label": "isRepaid",
            "offset": 21,
            "slot": "9",
            "type": "t_bool"
          }
        ],
        "numberOfBytes": "320"
      },
      "t_struct(Counter)9218_storage": {
        "encoding": "inplace",
        "label": "struct Counters.Counter",
        "members": [
          {
            "astId": 9217,
            "contract": "contracts/Loan.sol:Loan",
            "label": "_value",
            "offset": 0,
            "slot": "0",
            "type": "t_uint256"
          }
        ],
        "numberOfBytes": "32"
      },
      "t_struct(Lender)13734_storage": {
        "encoding": "inplace",
        "label": "struct Loan.Lender",
        "members": [
          {
            "astId": 13713,
            "contract": "contracts/Loan.sol:Loan",
            "label": "loanId",
            "offset": 0,
            "slot": "0",
            "type": "t_uint256"
          },
          {
            "astId": 13715,
            "contract": "contracts/Loan.sol:Loan",
            "label": "innitialLendAmount",
            "offset": 0,
            "slot": "1",
            "type": "t_uint256"
          },
          {
            "astId": 13717,
            "contract": "contracts/Loan.sol:Loan",
            "label": "currentAvailableLendAmount",
            "offset": 0,
            "slot": "2",
            "type": "t_uint256"
          },
          {
            "astId": 13719,
            "contract": "contracts/Loan.sol:Loan",
            "label": "amountRepaid",
            "offset": 0,
            "slot": "3",
            "type": "t_uint256"
          },
          {
            "astId": 13721,
            "contract": "contracts/Loan.sol:Loan",
            "label": "borrowerId",
            "offset": 0,
            "slot": "4",
            "type": "t_uint256"
          },
          {
            "astId": 13723,
            "contract": "contracts/Loan.sol:Loan",
            "label": "interestRate",
            "offset": 0,
            "slot": "5",
            "type": "t_uint256"
          },
          {
            "astId": 13725,
            "contract": "contracts/Loan.sol:Loan",
            "label": "loanOutDuration",
            "offset": 0,
            "slot": "6",
            "type": "t_uint256"
          },
          {
            "astId": 13727,
            "contract": "contracts/Loan.sol:Loan",
            "label": "locked",
            "offset": 0,
            "slot": "7",
            "type": "t_bool"
          },
          {
            "astId": 13729,
            "contract": "contracts/Loan.sol:Loan",
            "label": "isActive",
            "offset": 1,
            "slot": "7",
            "type": "t_bool"
          },
          {
            "astId": 13731,
            "contract": "contracts/Loan.sol:Loan",
            "label": "lender",
            "offset": 2,
            "slot": "7",
            "type": "t_address"
          },
          {
            "astId": 13733,
            "contract": "contracts/Loan.sol:Loan",
            "label": "loanDurationInMonthCount",
            "offset": 0,
            "slot": "8",
            "type": "t_uint256"
          }
        ],
        "numberOfBytes": "288"
      },
      "t_uint256": {
        "encoding": "inplace",
        "label": "uint256",
        "numberOfBytes": "32"
      }
    }
  }
}