{
  "address": "0x916aD713Feeb9ACadA68722b246c93b01dEBcca2",
  "abi": [
    {
      "inputs": [],
      "stateMutability": "nonpayable",
      "type": "constructor"
    },
    {
      "inputs": [
        {
          "internalType": "uint256",
          "name": "tokenId",
          "type": "uint256"
        }
      ],
      "name": "AssetIsFrozen",
      "type": "error"
    },
    {
      "anonymous": false,
      "inputs": [
        {
          "indexed": true,
          "internalType": "address",
          "name": "owner",
          "type": "address"
        },
        {
          "indexed": true,
          "internalType": "address",
          "name": "approved",
          "type": "address"
        },
        {
          "indexed": true,
          "internalType": "uint256",
          "name": "tokenId",
          "type": "uint256"
        }
      ],
      "name": "Approval",
      "type": "event"
    },
    {
      "anonymous": false,
      "inputs": [
        {
          "indexed": true,
          "internalType": "address",
          "name": "owner",
          "type": "address"
        },
        {
          "indexed": true,
          "internalType": "address",
          "name": "operator",
          "type": "address"
        },
        {
          "indexed": false,
          "internalType": "bool",
          "name": "approved",
          "type": "bool"
        }
      ],
      "name": "ApprovalForAll",
      "type": "event"
    },
    {
      "anonymous": false,
      "inputs": [
        {
          "indexed": false,
          "internalType": "uint256",
          "name": "_tokenId",
          "type": "uint256"
        },
        {
          "indexed": false,
          "internalType": "bool",
          "name": "isCollateral",
          "type": "bool"
        }
      ],
      "name": "AssetPromotedToCollateral",
      "type": "event"
    },
    {
      "anonymous": false,
      "inputs": [
        {
          "indexed": false,
          "internalType": "address",
          "name": "owner",
          "type": "address"
        },
        {
          "indexed": false,
          "internalType": "string",
          "name": "title",
          "type": "string"
        },
        {
          "indexed": false,
          "internalType": "string",
          "name": "description",
          "type": "string"
        },
        {
          "indexed": false,
          "internalType": "uint256",
          "name": "tokenId",
          "type": "uint256"
        },
        {
          "indexed": false,
          "internalType": "uint256",
          "name": "price",
          "type": "uint256"
        },
        {
          "indexed": false,
          "internalType": "string",
          "name": "assetURI",
          "type": "string"
        },
        {
          "indexed": false,
          "internalType": "uint256",
          "name": "revenue",
          "type": "uint256"
        },
        {
          "indexed": false,
          "internalType": "uint256",
          "name": "expenses",
          "type": "uint256"
        },
        {
          "indexed": false,
          "internalType": "uint256",
          "name": "traffic",
          "type": "uint256"
        },
        {
          "indexed": false,
          "internalType": "string",
          "name": "productLink",
          "type": "string"
        },
        {
          "indexed": false,
          "internalType": "bool",
          "name": "isFrozen",
          "type": "bool"
        },
        {
          "indexed": false,
          "internalType": "string",
          "name": "ownerEmail",
          "type": "string"
        },
        {
          "indexed": false,
          "internalType": "bool",
          "name": "isCollateral",
          "type": "bool"
        }
      ],
      "name": "MintedNft",
      "type": "event"
    },
    {
      "anonymous": false,
      "inputs": [
        {
          "indexed": true,
          "internalType": "address",
          "name": "previousOwner",
          "type": "address"
        },
        {
          "indexed": true,
          "internalType": "address",
          "name": "newOwner",
          "type": "address"
        }
      ],
      "name": "OwnershipTransferred",
      "type": "event"
    },
    {
      "anonymous": false,
      "inputs": [
        {
          "indexed": true,
          "internalType": "address",
          "name": "from",
          "type": "address"
        },
        {
          "indexed": true,
          "internalType": "address",
          "name": "to",
          "type": "address"
        },
        {
          "indexed": true,
          "internalType": "uint256",
          "name": "tokenId",
          "type": "uint256"
        }
      ],
      "name": "Transfer",
      "type": "event"
    },
    {
      "inputs": [
        {
          "internalType": "address",
          "name": "to",
          "type": "address"
        },
        {
          "internalType": "uint256",
          "name": "tokenId",
          "type": "uint256"
        }
      ],
      "name": "approve",
      "outputs": [],
      "stateMutability": "nonpayable",
      "type": "function"
    },
    {
      "inputs": [
        {
          "internalType": "address",
          "name": "owner",
          "type": "address"
        }
      ],
      "name": "balanceOf",
      "outputs": [
        {
          "internalType": "uint256",
          "name": "",
          "type": "uint256"
        }
      ],
      "stateMutability": "view",
      "type": "function"
    },
    {
      "inputs": [],
      "name": "baseURI",
      "outputs": [
        {
          "internalType": "string",
          "name": "",
          "type": "string"
        }
      ],
      "stateMutability": "view",
      "type": "function"
    },
    {
      "inputs": [
        {
          "internalType": "uint256",
          "name": "",
          "type": "uint256"
        }
      ],
      "name": "digitalAssets",
      "outputs": [
        {
          "internalType": "address",
          "name": "owner",
          "type": "address"
        },
        {
          "internalType": "string",
          "name": "title",
          "type": "string"
        },
        {
          "internalType": "string",
          "name": "description",
          "type": "string"
        },
        {
          "internalType": "uint256",
          "name": "tokenId",
          "type": "uint256"
        },
        {
          "internalType": "uint256",
          "name": "price",
          "type": "uint256"
        },
        {
          "internalType": "string",
          "name": "assetURI",
          "type": "string"
        },
        {
          "internalType": "uint256",
          "name": "revenue",
          "type": "uint256"
        },
        {
          "internalType": "uint256",
          "name": "expenses",
          "type": "uint256"
        },
        {
          "internalType": "uint256",
          "name": "traffic",
          "type": "uint256"
        },
        {
          "internalType": "string",
          "name": "productLink",
          "type": "string"
        },
        {
          "internalType": "bool",
          "name": "isFrozen",
          "type": "bool"
        },
        {
          "internalType": "string",
          "name": "ownerEmail",
          "type": "string"
        },
        {
          "internalType": "bool",
          "name": "isCollateral",
          "type": "bool"
        }
      ],
      "stateMutability": "view",
      "type": "function"
    },
    {
      "inputs": [
        {
          "internalType": "uint256",
          "name": "_tokenId",
          "type": "uint256"
        }
      ],
      "name": "freeze",
      "outputs": [],
      "stateMutability": "nonpayable",
      "type": "function"
    },
    {
      "inputs": [
        {
          "internalType": "uint256",
          "name": "tokenId",
          "type": "uint256"
        }
      ],
      "name": "getApproved",
      "outputs": [
        {
          "internalType": "address",
          "name": "",
          "type": "address"
        }
      ],
      "stateMutability": "view",
      "type": "function"
    },
    {
      "inputs": [
        {
          "internalType": "uint256",
          "name": "_tokenId",
          "type": "uint256"
        }
      ],
      "name": "getNftItem",
      "outputs": [
        {
          "components": [
            {
              "internalType": "address",
              "name": "owner",
              "type": "address"
            },
            {
              "internalType": "string",
              "name": "title",
              "type": "string"
            },
            {
              "internalType": "string",
              "name": "description",
              "type": "string"
            },
            {
              "internalType": "uint256",
              "name": "tokenId",
              "type": "uint256"
            },
            {
              "internalType": "uint256",
              "name": "price",
              "type": "uint256"
            },
            {
              "internalType": "string",
              "name": "assetURI",
              "type": "string"
            },
            {
              "internalType": "uint256",
              "name": "revenue",
              "type": "uint256"
            },
            {
              "internalType": "uint256",
              "name": "expenses",
              "type": "uint256"
            },
            {
              "internalType": "uint256",
              "name": "traffic",
              "type": "uint256"
            },
            {
              "internalType": "string",
              "name": "productLink",
              "type": "string"
            },
            {
              "internalType": "bool",
              "name": "isFrozen",
              "type": "bool"
            },
            {
              "internalType": "string",
              "name": "ownerEmail",
              "type": "string"
            },
            {
              "internalType": "bool",
              "name": "isCollateral",
              "type": "bool"
            }
          ],
          "internalType": "struct Fisch.DigitalAsset",
          "name": "",
          "type": "tuple"
        }
      ],
      "stateMutability": "view",
      "type": "function"
    },
    {
      "inputs": [
        {
          "internalType": "address",
          "name": "owner",
          "type": "address"
        },
        {
          "internalType": "address",
          "name": "operator",
          "type": "address"
        }
      ],
      "name": "isApprovedForAll",
      "outputs": [
        {
          "internalType": "bool",
          "name": "",
          "type": "bool"
        }
      ],
      "stateMutability": "view",
      "type": "function"
    },
    {
      "inputs": [
        {
          "internalType": "uint256",
          "name": "_tokenId",
          "type": "uint256"
        }
      ],
      "name": "makeNftCollateral",
      "outputs": [],
      "stateMutability": "nonpayable",
      "type": "function"
    },
    {
      "inputs": [
        {
          "components": [
            {
              "internalType": "string",
              "name": "title",
              "type": "string"
            },
            {
              "internalType": "string",
              "name": "description",
              "type": "string"
            },
            {
              "internalType": "uint256",
              "name": "price",
              "type": "uint256"
            },
            {
              "internalType": "string",
              "name": "assetURI",
              "type": "string"
            },
            {
              "internalType": "uint256",
              "name": "revenue",
              "type": "uint256"
            },
            {
              "internalType": "uint256",
              "name": "expenses",
              "type": "uint256"
            },
            {
              "internalType": "uint256",
              "name": "traffic",
              "type": "uint256"
            },
            {
              "internalType": "string",
              "name": "productLink",
              "type": "string"
            },
            {
              "internalType": "string",
              "name": "ownerEmail",
              "type": "string"
            }
          ],
          "internalType": "struct Fisch.DigiAssetInput",
          "name": "digi",
          "type": "tuple"
        }
      ],
      "name": "mintNFT",
      "outputs": [
        {
          "internalType": "uint256",
          "name": "",
          "type": "uint256"
        }
      ],
      "stateMutability": "nonpayable",
      "type": "function"
    },
    {
      "inputs": [],
      "name": "name",
      "outputs": [
        {
          "internalType": "string",
          "name": "",
          "type": "string"
        }
      ],
      "stateMutability": "view",
      "type": "function"
    },
    {
      "inputs": [],
      "name": "owner",
      "outputs": [
        {
          "internalType": "address",
          "name": "",
          "type": "address"
        }
      ],
      "stateMutability": "view",
      "type": "function"
    },
    {
      "inputs": [
        {
          "internalType": "uint256",
          "name": "tokenId",
          "type": "uint256"
        }
      ],
      "name": "ownerOf",
      "outputs": [
        {
          "internalType": "address",
          "name": "",
          "type": "address"
        }
      ],
      "stateMutability": "view",
      "type": "function"
    },
    {
      "inputs": [],
      "name": "renounceOwnership",
      "outputs": [],
      "stateMutability": "nonpayable",
      "type": "function"
    },
    {
      "inputs": [
        {
          "internalType": "address",
          "name": "_from",
          "type": "address"
        },
        {
          "internalType": "address",
          "name": "_to",
          "type": "address"
        },
        {
          "internalType": "uint256",
          "name": "_tokenId",
          "type": "uint256"
        }
      ],
      "name": "safeTransfer",
      "outputs": [],
      "stateMutability": "nonpayable",
      "type": "function"
    },
    {
      "inputs": [
        {
          "internalType": "address",
          "name": "from",
          "type": "address"
        },
        {
          "internalType": "address",
          "name": "to",
          "type": "address"
        },
        {
          "internalType": "uint256",
          "name": "tokenId",
          "type": "uint256"
        }
      ],
      "name": "safeTransferFrom",
      "outputs": [],
      "stateMutability": "nonpayable",
      "type": "function"
    },
    {
      "inputs": [
        {
          "internalType": "address",
          "name": "_from",
          "type": "address"
        },
        {
          "internalType": "address",
          "name": "_to",
          "type": "address"
        },
        {
          "internalType": "uint256",
          "name": "_tokenId",
          "type": "uint256"
        },
        {
          "internalType": "bytes",
          "name": "data",
          "type": "bytes"
        }
      ],
      "name": "safeTransferFrom",
      "outputs": [],
      "stateMutability": "nonpayable",
      "type": "function"
    },
    {
      "inputs": [
        {
          "internalType": "address",
          "name": "operator",
          "type": "address"
        },
        {
          "internalType": "bool",
          "name": "approved",
          "type": "bool"
        }
      ],
      "name": "setApprovalForAll",
      "outputs": [],
      "stateMutability": "nonpayable",
      "type": "function"
    },
    {
      "inputs": [
        {
          "internalType": "string",
          "name": "_baseURIStr",
          "type": "string"
        }
      ],
      "name": "setBaseURI",
      "outputs": [],
      "stateMutability": "nonpayable",
      "type": "function"
    },
    {
      "inputs": [
        {
          "internalType": "uint256",
          "name": "_price",
          "type": "uint256"
        },
        {
          "internalType": "uint256",
          "name": "tokenId",
          "type": "uint256"
        }
      ],
      "name": "setPriceDigitalAsset",
      "outputs": [],
      "stateMutability": "nonpayable",
      "type": "function"
    },
    {
      "inputs": [
        {
          "internalType": "bytes4",
          "name": "interfaceId",
          "type": "bytes4"
        }
      ],
      "name": "supportsInterface",
      "outputs": [
        {
          "internalType": "bool",
          "name": "",
          "type": "bool"
        }
      ],
      "stateMutability": "view",
      "type": "function"
    },
    {
      "inputs": [],
      "name": "symbol",
      "outputs": [
        {
          "internalType": "string",
          "name": "",
          "type": "string"
        }
      ],
      "stateMutability": "view",
      "type": "function"
    },
    {
      "inputs": [
        {
          "internalType": "uint256",
          "name": "tokenId",
          "type": "uint256"
        }
      ],
      "name": "tokenURI",
      "outputs": [
        {
          "internalType": "string",
          "name": "",
          "type": "string"
        }
      ],
      "stateMutability": "view",
      "type": "function"
    },
    {
      "inputs": [
        {
          "internalType": "address",
          "name": "from",
          "type": "address"
        },
        {
          "internalType": "address",
          "name": "to",
          "type": "address"
        },
        {
          "internalType": "uint256",
          "name": "tokenId",
          "type": "uint256"
        }
      ],
      "name": "transferFrom",
      "outputs": [],
      "stateMutability": "nonpayable",
      "type": "function"
    },
    {
      "inputs": [
        {
          "internalType": "address",
          "name": "newOwner",
          "type": "address"
        }
      ],
      "name": "transferOwnership",
      "outputs": [],
      "stateMutability": "nonpayable",
      "type": "function"
    },
    {
      "inputs": [
        {
          "internalType": "uint256",
          "name": "_tokenId",
          "type": "uint256"
        }
      ],
      "name": "unfreeze",
      "outputs": [],
      "stateMutability": "nonpayable",
      "type": "function"
    }
  ],
  "transactionHash": "0x4c81df0ce3bc862de0616035f47fe0f8ac4b26fbec85d4f418ba988f96a304b4",
  "args": [],
  "numDeployments": 8,
  "solcInputHash": "5e6cbc645b891a490c62da87caf150d9",
  "bytecode": "0x60806040523480156200001157600080fd5b50604051806040016040528060088152602001674669736368656c6160c01b8152506040518060400160405280600381526020016246495360e81b8152506200006962000063620000a260201b60201c565b620000a6565b81516200007e906001906020850190620000f6565b50805162000094906002906020840190620000f6565b5050600160085550620001d9565b3390565b600080546001600160a01b038381166001600160a01b0319831681178455604051919092169283917f8be0079c531659141344cd1fd0a4f28419497f9722a3daafe3b4186f6b6457e09190a35050565b82805462000104906200019c565b90600052602060002090601f01602090048101928262000128576000855562000173565b82601f106200014357805160ff191683800117855562000173565b8280016001018555821562000173579182015b828111156200017357825182559160200191906001019062000156565b506200018192915062000185565b5090565b5b8082111562000181576000815560010162000186565b600181811c90821680620001b157607f821691505b60208210811415620001d357634e487b7160e01b600052602260045260246000fd5b50919050565b61275280620001e96000396000f3fe608060405234801561001057600080fd5b506004361061018e5760003560e01c8063715018a6116100de578063b88d4fde11610097578063d1660f9911610071578063d1660f991461039c578063d7a78db8146103af578063e985e9c5146103db578063f2fde38b1461041757600080fd5b8063b88d4fde1461034a578063bd1b02211461035d578063c87b56dd1461038957600080fd5b8063715018a6146102f05780638da5cb5b146102f857806395d89b4114610309578063a22cb46514610311578063a52e2f6114610324578063b0054e491461033757600080fd5b806342842e0e1161014b5780636623fc46116101255780636623fc461461027e5780636c0360eb146102a75780636f1a0af5146102af57806370a08231146102cf57600080fd5b806342842e0e1461024557806355f804b3146102585780636352211e1461026b57600080fd5b806301ffc9a71461019357806306fdde03146101bb578063081812fc146101d0578063095ea7b3146101fb5780630e784db21461021057806323b872dd14610232575b600080fd5b6101a66101a1366004611f0f565b61042a565b60405190151581526020015b60405180910390f35b6101c361047c565b6040516101b29190611f84565b6101e36101de366004611f97565b61050e565b6040516001600160a01b0390911681526020016101b2565b61020e610209366004611fcc565b610535565b005b61020e61021e366004611ff6565b6000908152600b6020526040902060040155565b61020e610240366004612018565b610650565b61020e610253366004612018565b610681565b61020e61026636600461212a565b61069c565b6101e3610279366004611f97565b6106b3565b61020e61028c366004611f97565b6000908152600b60205260409020600a01805460ff19169055565b6101c3610713565b6102c26102bd366004611f97565b6107a1565b6040516101b2919061215f565b6102e26102dd366004612284565b610b7c565b6040519081526020016101b2565b61020e610c02565b6000546001600160a01b03166101e3565b6101c3610c16565b61020e61031f36600461229f565b610c25565b61020e610332366004611f97565b610c30565b6102e26103453660046122db565b610c8d565b61020e610358366004612405565b610f00565b61037061036b366004611f97565b610f48565b6040516101b29d9c9b9a99989796959493929190612481565b6101c3610397366004611f97565b611265565b61020e6103aa366004612018565b611369565b61020e6103bd366004611f97565b6000908152600b60205260409020600a01805460ff19166001179055565b6101a66103e9366004612541565b6001600160a01b03918216600090815260066020908152604080832093909416825291909152205460ff1690565b61020e610425366004612284565b611396565b60006001600160e01b031982166380ac58cd60e01b148061045b57506001600160e01b03198216635b5e139f60e01b145b8061047657506301ffc9a760e01b6001600160e01b03198316145b92915050565b60606001805461048b90612574565b80601f01602080910402602001604051908101604052809291908181526020018280546104b790612574565b80156105045780601f106104d957610100808354040283529160200191610504565b820191906000526020600020905b8154815290600101906020018083116104e757829003601f168201915b5050505050905090565b60006105198261140f565b506000908152600560205260409020546001600160a01b031690565b6000610540826106b3565b9050806001600160a01b0316836001600160a01b031614156105b35760405162461bcd60e51b815260206004820152602160248201527f4552433732313a20617070726f76616c20746f2063757272656e74206f776e656044820152603960f91b60648201526084015b60405180910390fd5b336001600160a01b03821614806105cf57506105cf81336103e9565b6106415760405162461bcd60e51b815260206004820152603d60248201527f4552433732313a20617070726f76652063616c6c6572206973206e6f7420746f60448201527f6b656e206f776e6572206f7220617070726f76656420666f7220616c6c00000060648201526084016105aa565b61064b838361146e565b505050565b61065a33826114dc565b6106765760405162461bcd60e51b81526004016105aa906125af565b61064b83838361155a565b61064b83838360405180602001604052806000815250610f00565b80516106af90600a906020840190611e60565b5050565b6000818152600360205260408120546001600160a01b0316806104765760405162461bcd60e51b8152602060048201526018602482015277115490cdcc8c4e881a5b9d985b1a59081d1bdad95b88125160421b60448201526064016105aa565b600a805461072090612574565b80601f016020809104026020016040519081016040528092919081815260200182805461074c90612574565b80156107995780601f1061076e57610100808354040283529160200191610799565b820191906000526020600020905b81548152906001019060200180831161077c57829003601f168201915b505050505081565b610819604051806101a0016040528060006001600160a01b03168152602001606081526020016060815260200160008152602001600081526020016060815260200160008152602001600081526020016000815260200160608152602001600015158152602001606081526020016000151581525090565b6000828152600b602090815260409182902082516101a0810190935280546001600160a01b03168352600181018054919284019161085690612574565b80601f016020809104026020016040519081016040528092919081815260200182805461088290612574565b80156108cf5780601f106108a4576101008083540402835291602001916108cf565b820191906000526020600020905b8154815290600101906020018083116108b257829003601f168201915b505050505081526020016002820180546108e890612574565b80601f016020809104026020016040519081016040528092919081815260200182805461091490612574565b80156109615780601f1061093657610100808354040283529160200191610961565b820191906000526020600020905b81548152906001019060200180831161094457829003601f168201915b50505050508152602001600382015481526020016004820154815260200160058201805461098e90612574565b80601f01602080910402602001604051908101604052809291908181526020018280546109ba90612574565b8015610a075780601f106109dc57610100808354040283529160200191610a07565b820191906000526020600020905b8154815290600101906020018083116109ea57829003601f168201915b50505050508152602001600682015481526020016007820154815260200160088201548152602001600982018054610a3e90612574565b80601f0160208091040260200160405190810160405280929190818152602001828054610a6a90612574565b8015610ab75780601f10610a8c57610100808354040283529160200191610ab7565b820191906000526020600020905b815481529060010190602001808311610a9a57829003601f168201915b5050509183525050600a82015460ff1615156020820152600b82018054604090920191610ae390612574565b80601f0160208091040260200160405190810160405280929190818152602001828054610b0f90612574565b8015610b5c5780601f10610b3157610100808354040283529160200191610b5c565b820191906000526020600020905b815481529060010190602001808311610b3f57829003601f168201915b5050509183525050600c919091015460ff16151560209091015292915050565b60006001600160a01b038216610be65760405162461bcd60e51b815260206004820152602960248201527f4552433732313a2061646472657373207a65726f206973206e6f7420612076616044820152683634b21037bbb732b960b91b60648201526084016105aa565b506001600160a01b031660009081526004602052604090205490565b610c0a6116be565b610c146000611718565b565b60606002805461048b90612574565b6106af338383611768565b6000818152600b6020908152604091829020600c8101805460ff19166001908117909155835185815292830152917fc172f7100eb9d23fa2ce6767b81191d20a2ea70e7eb061fc27ae4a9356669261910160405180910390a15050565b600080610c9960095490565b9050610ca9600980546001019055565b604051806101a00160405280336001600160a01b0316815260200184600001518152602001846020015181526020018281526020018460400151815260200184606001518152602001846080015181526020018460a0015181526020018460c0015181526020018460e001518152602001600015158152602001846101000151815260200160001515815250600b600083815260200190815260200160002060008201518160000160006101000a8154816001600160a01b0302191690836001600160a01b031602179055506020820151816001019080519060200190610d91929190611e60565b5060408201518051610dad916002840191602090910190611e60565b50606082015160038201556080820151600482015560a08201518051610ddd916005840191602090910190611e60565b5060c0820151600682015560e0820151600782015561010082015160088201556101208201518051610e19916009840191602090910190611e60565b50610140820151600a8201805460ff19169115159190911790556101608201518051610e4f91600b840191602090910190611e60565b506101809190910151600c909101805460ff1916911515919091179055610e763382611837565b610e84818460600151611851565b7f9da49c187af5698970ae119015e0ea8fd799ee484f1cd3c0c26d14b6a4c2d9fc3384600001518560200151848760400151886060015189608001518a60a001518b60c001518c60e0015160008e61010001516000604051610ef29d9c9b9a99989796959493929190612481565b60405180910390a192915050565b6000828152600b60205260409020600a015460ff1615610f365760405163e218b11b60e01b8152600481018390526024016105aa565b610f42848484846118eb565b50505050565b600b60205260009081526040902080546001820180546001600160a01b039092169291610f7490612574565b80601f0160208091040260200160405190810160405280929190818152602001828054610fa090612574565b8015610fed5780601f10610fc257610100808354040283529160200191610fed565b820191906000526020600020905b815481529060010190602001808311610fd057829003601f168201915b50505050509080600201805461100290612574565b80601f016020809104026020016040519081016040528092919081815260200182805461102e90612574565b801561107b5780601f106110505761010080835404028352916020019161107b565b820191906000526020600020905b81548152906001019060200180831161105e57829003601f168201915b50505050509080600301549080600401549080600501805461109c90612574565b80601f01602080910402602001604051908101604052809291908181526020018280546110c890612574565b80156111155780601f106110ea57610100808354040283529160200191611115565b820191906000526020600020905b8154815290600101906020018083116110f857829003601f168201915b50505050509080600601549080600701549080600801549080600901805461113c90612574565b80601f016020809104026020016040519081016040528092919081815260200182805461116890612574565b80156111b55780601f1061118a576101008083540402835291602001916111b5565b820191906000526020600020905b81548152906001019060200180831161119857829003601f168201915b505050600a840154600b85018054949560ff9092169491935091506111d990612574565b80601f016020809104026020016040519081016040528092919081815260200182805461120590612574565b80156112525780601f1061122757610100808354040283529160200191611252565b820191906000526020600020905b81548152906001019060200180831161123557829003601f168201915b505050600c909301549192505060ff168d565b60606112708261140f565b6000828152600760205260408120805461128990612574565b80601f01602080910402602001604051908101604052809291908181526020018280546112b590612574565b80156113025780601f106112d757610100808354040283529160200191611302565b820191906000526020600020905b8154815290600101906020018083116112e557829003601f168201915b50505050509050600061131361191d565b9050805160001415611326575092915050565b8151156113585780826040516020016113409291906125fc565b60405160208183030381529060405292505050919050565b6113618461192c565b949350505050565b611371611993565b61138c838383604051806020016040528060008152506119ed565b61064b6001600855565b61139e6116be565b6001600160a01b0381166114035760405162461bcd60e51b815260206004820152602660248201527f4f776e61626c653a206e6577206f776e657220697320746865207a65726f206160448201526564647265737360d01b60648201526084016105aa565b61140c81611718565b50565b6000818152600360205260409020546001600160a01b031661140c5760405162461bcd60e51b8152602060048201526018602482015277115490cdcc8c4e881a5b9d985b1a59081d1bdad95b88125160421b60448201526064016105aa565b600081815260056020526040902080546001600160a01b0319166001600160a01b03841690811790915581906114a3826106b3565b6001600160a01b03167f8c5be1e5ebec7d5bd14f71427d1e84f3dd0314c0f7b2291e5b200ac8c7c3b92560405160405180910390a45050565b6000806114e8836106b3565b9050806001600160a01b0316846001600160a01b0316148061152f57506001600160a01b0380821660009081526006602090815260408083209388168352929052205460ff165b806113615750836001600160a01b03166115488461050e565b6001600160a01b031614949350505050565b826001600160a01b031661156d826106b3565b6001600160a01b0316146115935760405162461bcd60e51b81526004016105aa9061262b565b6001600160a01b0382166115f55760405162461bcd60e51b8152602060048201526024808201527f4552433732313a207472616e7366657220746f20746865207a65726f206164646044820152637265737360e01b60648201526084016105aa565b826001600160a01b0316611608826106b3565b6001600160a01b03161461162e5760405162461bcd60e51b81526004016105aa9061262b565b600081815260056020908152604080832080546001600160a01b03199081169091556001600160a01b0387811680865260048552838620805460001901905590871680865283862080546001019055868652600390945282852080549092168417909155905184937fddf252ad1be2c89b69c2b068fc378daa952ba7f163c4a11628f55a4df523b3ef91a4505050565b6000546001600160a01b03163314610c145760405162461bcd60e51b815260206004820181905260248201527f4f776e61626c653a2063616c6c6572206973206e6f7420746865206f776e657260448201526064016105aa565b600080546001600160a01b038381166001600160a01b0319831681178455604051919092169283917f8be0079c531659141344cd1fd0a4f28419497f9722a3daafe3b4186f6b6457e09190a35050565b816001600160a01b0316836001600160a01b031614156117ca5760405162461bcd60e51b815260206004820152601960248201527f4552433732313a20617070726f766520746f2063616c6c65720000000000000060448201526064016105aa565b6001600160a01b03838116600081815260066020908152604080832094871680845294825291829020805460ff191686151590811790915591519182527f17307eab39ab6107e8899845ad3d59bd9653f200f220920489ca2b5937696c31910160405180910390a3505050565b6106af828260405180602001604052806000815250611a20565b6000828152600360205260409020546001600160a01b03166118cc5760405162461bcd60e51b815260206004820152602e60248201527f45524337323155524953746f726167653a2055524920736574206f66206e6f6e60448201526d32bc34b9ba32b73a103a37b5b2b760911b60648201526084016105aa565b6000828152600760209081526040909120825161064b92840190611e60565b6118f533836114dc565b6119115760405162461bcd60e51b81526004016105aa906125af565b610f42848484846119ed565b6060600a805461048b90612574565b60606119378261140f565b600061194161191d565b90506000815111611961576040518060200160405280600081525061198c565b8061196b84611a53565b60405160200161197c9291906125fc565b6040516020818303038152906040525b9392505050565b600260085414156119e65760405162461bcd60e51b815260206004820152601f60248201527f5265656e7472616e637947756172643a207265656e7472616e742063616c6c0060448201526064016105aa565b6002600855565b6119f884848461155a565b611a0484848484611af0565b610f425760405162461bcd60e51b81526004016105aa90612670565b611a2a8383611bfd565b611a376000848484611af0565b61064b5760405162461bcd60e51b81526004016105aa90612670565b60606000611a6083611d88565b600101905060008167ffffffffffffffff811115611a8057611a80612054565b6040519080825280601f01601f191660200182016040528015611aaa576020820181803683370190505b5090508181016020015b600019016f181899199a1a9b1b9c1cb0b131b232b360811b600a86061a8153600a8504945084611ae357611ae8565b611ab4565b509392505050565b60006001600160a01b0384163b15611bf257604051630a85bd0160e11b81526001600160a01b0385169063150b7a0290611b349033908990889088906004016126c2565b602060405180830381600087803b158015611b4e57600080fd5b505af1925050508015611b7e575060408051601f3d908101601f19168201909252611b7b918101906126ff565b60015b611bd8573d808015611bac576040519150601f19603f3d011682016040523d82523d6000602084013e611bb1565b606091505b508051611bd05760405162461bcd60e51b81526004016105aa90612670565b805181602001fd5b6001600160e01b031916630a85bd0160e11b149050611361565b506001949350505050565b6001600160a01b038216611c535760405162461bcd60e51b815260206004820181905260248201527f4552433732313a206d696e7420746f20746865207a65726f206164647265737360448201526064016105aa565b6000818152600360205260409020546001600160a01b031615611cb85760405162461bcd60e51b815260206004820152601c60248201527f4552433732313a20746f6b656e20616c7265616479206d696e7465640000000060448201526064016105aa565b6000818152600360205260409020546001600160a01b031615611d1d5760405162461bcd60e51b815260206004820152601c60248201527f4552433732313a20746f6b656e20616c7265616479206d696e7465640000000060448201526064016105aa565b6001600160a01b038216600081815260046020908152604080832080546001019055848352600390915280822080546001600160a01b0319168417905551839291907fddf252ad1be2c89b69c2b068fc378daa952ba7f163c4a11628f55a4df523b3ef908290a45050565b60008072184f03e93ff9f4daa797ed6e38ed64bf6a1f0160401b8310611dc75772184f03e93ff9f4daa797ed6e38ed64bf6a1f0160401b830492506040015b6d04ee2d6d415b85acef81000000008310611df3576d04ee2d6d415b85acef8100000000830492506020015b662386f26fc100008310611e1157662386f26fc10000830492506010015b6305f5e1008310611e29576305f5e100830492506008015b6127108310611e3d57612710830492506004015b60648310611e4f576064830492506002015b600a83106104765760010192915050565b828054611e6c90612574565b90600052602060002090601f016020900481019282611e8e5760008555611ed4565b82601f10611ea757805160ff1916838001178555611ed4565b82800160010185558215611ed4579182015b82811115611ed4578251825591602001919060010190611eb9565b50611ee0929150611ee4565b5090565b5b80821115611ee05760008155600101611ee5565b6001600160e01b03198116811461140c57600080fd5b600060208284031215611f2157600080fd5b813561198c81611ef9565b60005b83811015611f47578181015183820152602001611f2f565b83811115610f425750506000910152565b60008151808452611f70816020860160208601611f2c565b601f01601f19169290920160200192915050565b60208152600061198c6020830184611f58565b600060208284031215611fa957600080fd5b5035919050565b80356001600160a01b0381168114611fc757600080fd5b919050565b60008060408385031215611fdf57600080fd5b611fe883611fb0565b946020939093013593505050565b6000806040838503121561200957600080fd5b50508035926020909101359150565b60008060006060848603121561202d57600080fd5b61203684611fb0565b925061204460208501611fb0565b9150604084013590509250925092565b634e487b7160e01b600052604160045260246000fd5b604051610120810167ffffffffffffffff8111828210171561208e5761208e612054565b60405290565b600067ffffffffffffffff808411156120af576120af612054565b604051601f8501601f19908116603f011681019082821181831017156120d7576120d7612054565b816040528093508581528686860111156120f057600080fd5b858560208301376000602087830101525050509392505050565b600082601f83011261211b57600080fd5b61198c83833560208501612094565b60006020828403121561213c57600080fd5b813567ffffffffffffffff81111561215357600080fd5b6113618482850161210a565b602081526121796020820183516001600160a01b03169052565b600060208301516101a08060408501526121976101c0850183611f58565b91506040850151601f19808685030160608701526121b58483611f58565b935060608701516080870152608087015160a087015260a08701519150808685030160c08701526121e68483611f58565b935060c087015160e087015260e0870151915061010082818801528088015192505061012082818801528088015192505061014081878603018188015261222d8584611f58565b9450808801519250506101606122468188018415159052565b808801519250506101808187860301818801526122638584611f58565b9450808801519250505061227a8286018215159052565b5090949350505050565b60006020828403121561229657600080fd5b61198c82611fb0565b600080604083850312156122b257600080fd5b6122bb83611fb0565b9150602083013580151581146122d057600080fd5b809150509250929050565b6000602082840312156122ed57600080fd5b813567ffffffffffffffff8082111561230557600080fd5b90830190610120828603121561231a57600080fd5b61232261206a565b82358281111561233157600080fd5b61233d8782860161210a565b82525060208301358281111561235257600080fd5b61235e8782860161210a565b6020830152506040830135604082015260608301358281111561238057600080fd5b61238c8782860161210a565b6060830152506080830135608082015260a083013560a082015260c083013560c082015260e0830135828111156123c257600080fd5b6123ce8782860161210a565b60e08301525061010080840135838111156123e857600080fd5b6123f48882870161210a565b918301919091525095945050505050565b6000806000806080858703121561241b57600080fd5b61242485611fb0565b935061243260208601611fb0565b925060408501359150606085013567ffffffffffffffff81111561245557600080fd5b8501601f8101871361246657600080fd5b61247587823560208401612094565b91505092959194509250565b6001600160a01b038e1681526101a0602082015260006124a56101a083018f611f58565b82810360408401526124b7818f611f58565b90508c60608401528b608084015282810360a08401526124d7818c611f58565b90508960c08401528860e0840152876101008401528281036101208401526124ff8188611f58565b861515610140850152905082810361016084015261251d8186611f58565b91505061252f61018083018415159052565b9e9d5050505050505050505050505050565b6000806040838503121561255457600080fd5b61255d83611fb0565b915061256b60208401611fb0565b90509250929050565b600181811c9082168061258857607f821691505b602082108114156125a957634e487b7160e01b600052602260045260246000fd5b50919050565b6020808252602d908201527f4552433732313a2063616c6c6572206973206e6f7420746f6b656e206f776e6560408201526c1c881bdc88185c1c1c9bdd9959609a1b606082015260800190565b6000835161260e818460208801611f2c565b835190830190612622818360208801611f2c565b01949350505050565b60208082526025908201527f4552433732313a207472616e736665722066726f6d20696e636f72726563742060408201526437bbb732b960d91b606082015260800190565b60208082526032908201527f4552433732313a207472616e7366657220746f206e6f6e20455243373231526560408201527131b2b4bb32b91034b6b83632b6b2b73a32b960711b606082015260800190565b6001600160a01b03858116825284166020820152604081018390526080606082018190526000906126f590830184611f58565b9695505050505050565b60006020828403121561271157600080fd5b815161198c81611ef956fea2646970667358221220d459907e0173ce506b2577006bcc02768f307324ff76f71bd566c564b80eb0a564736f6c63430008090033",
  "devdoc": {
    "kind": "dev",
    "methods": {
      "approve(address,uint256)": {
        "details": "See {IERC721-approve}."
      },
      "balanceOf(address)": {
        "details": "See {IERC721-balanceOf}."
      },
      "getApproved(uint256)": {
        "details": "See {IERC721-getApproved}."
      },
      "isApprovedForAll(address,address)": {
        "details": "See {IERC721-isApprovedForAll}."
      },
      "name()": {
        "details": "See {IERC721Metadata-name}."
      },
      "owner()": {
        "details": "Returns the address of the current owner."
      },
      "ownerOf(uint256)": {
        "details": "See {IERC721-ownerOf}."
      },
      "renounceOwnership()": {
        "details": "Leaves the contract without owner. It will not be possible to call `onlyOwner` functions anymore. Can only be called by the current owner. NOTE: Renouncing ownership will leave the contract without an owner, thereby removing any functionality that is only available to the owner."
      },
      "safeTransferFrom(address,address,uint256)": {
        "details": "See {IERC721-safeTransferFrom}."
      },
      "setApprovalForAll(address,bool)": {
        "details": "See {IERC721-setApprovalForAll}."
      },
      "supportsInterface(bytes4)": {
        "details": "See {IERC165-supportsInterface}."
      },
      "symbol()": {
        "details": "See {IERC721Metadata-symbol}."
      },
      "tokenURI(uint256)": {
        "details": "See {IERC721Metadata-tokenURI}."
      },
      "transferFrom(address,address,uint256)": {
        "details": "See {IERC721-transferFrom}."
      },
      "transferOwnership(address)": {
        "details": "Transfers ownership of the contract to a new account (`newOwner`). Can only be called by the current owner."
      }
    },
    "version": 1
  },
  "userdoc": {
    "kind": "user",
    "methods": {},
    "version": 1
  },
  "storageLayout": {
    "storage": [
      {
        "astId": 65,
        "contract": "contracts/Fisch.sol:Fisch",
        "label": "_owner",
        "offset": 0,
        "slot": "0",
        "type": "t_address"
      },
      {
        "astId": 250,
        "contract": "contracts/Fisch.sol:Fisch",
        "label": "_name",
        "offset": 0,
        "slot": "1",
        "type": "t_string_storage"
      },
      {
        "astId": 252,
        "contract": "contracts/Fisch.sol:Fisch",
        "label": "_symbol",
        "offset": 0,
        "slot": "2",
        "type": "t_string_storage"
      },
      {
        "astId": 256,
        "contract": "contracts/Fisch.sol:Fisch",
        "label": "_owners",
        "offset": 0,
        "slot": "3",
        "type": "t_mapping(t_uint256,t_address)"
      },
      {
        "astId": 260,
        "contract": "contracts/Fisch.sol:Fisch",
        "label": "_balances",
        "offset": 0,
        "slot": "4",
        "type": "t_mapping(t_address,t_uint256)"
      },
      {
        "astId": 264,
        "contract": "contracts/Fisch.sol:Fisch",
        "label": "_tokenApprovals",
        "offset": 0,
        "slot": "5",
        "type": "t_mapping(t_uint256,t_address)"
      },
      {
        "astId": 270,
        "contract": "contracts/Fisch.sol:Fisch",
        "label": "_operatorApprovals",
        "offset": 0,
        "slot": "6",
        "type": "t_mapping(t_address,t_mapping(t_address,t_bool))"
      },
      {
        "astId": 1298,
        "contract": "contracts/Fisch.sol:Fisch",
        "label": "_tokenURIs",
        "offset": 0,
        "slot": "7",
        "type": "t_mapping(t_uint256,t_string_storage)"
      },
      {
        "astId": 181,
        "contract": "contracts/Fisch.sol:Fisch",
        "label": "_status",
        "offset": 0,
        "slot": "8",
        "type": "t_uint256"
      },
      {
        "astId": 3272,
        "contract": "contracts/Fisch.sol:Fisch",
        "label": "_tokenIdCounter",
        "offset": 0,
        "slot": "9",
        "type": "t_struct(Counter)1795_storage"
      },
      {
        "astId": 3277,
        "contract": "contracts/Fisch.sol:Fisch",
        "label": "baseURI",
        "offset": 0,
        "slot": "10",
        "type": "t_string_storage"
      },
      {
        "astId": 3366,
        "contract": "contracts/Fisch.sol:Fisch",
        "label": "digitalAssets",
        "offset": 0,
        "slot": "11",
        "type": "t_mapping(t_uint256,t_struct(DigitalAsset)3342_storage)"
      }
    ],
    "types": {
      "t_address": {
        "encoding": "inplace",
        "label": "address",
        "numberOfBytes": "20"
      },
      "t_bool": {
        "encoding": "inplace",
        "label": "bool",
        "numberOfBytes": "1"
      },
      "t_mapping(t_address,t_bool)": {
        "encoding": "mapping",
        "key": "t_address",
        "label": "mapping(address => bool)",
        "numberOfBytes": "32",
        "value": "t_bool"
      },
      "t_mapping(t_address,t_mapping(t_address,t_bool))": {
        "encoding": "mapping",
        "key": "t_address",
        "label": "mapping(address => mapping(address => bool))",
        "numberOfBytes": "32",
        "value": "t_mapping(t_address,t_bool)"
      },
      "t_mapping(t_address,t_uint256)": {
        "encoding": "mapping",
        "key": "t_address",
        "label": "mapping(address => uint256)",
        "numberOfBytes": "32",
        "value": "t_uint256"
      },
      "t_mapping(t_uint256,t_address)": {
        "encoding": "mapping",
        "key": "t_uint256",
        "label": "mapping(uint256 => address)",
        "numberOfBytes": "32",
        "value": "t_address"
      },
      "t_mapping(t_uint256,t_string_storage)": {
        "encoding": "mapping",
        "key": "t_uint256",
        "label": "mapping(uint256 => string)",
        "numberOfBytes": "32",
        "value": "t_string_storage"
      },
      "t_mapping(t_uint256,t_struct(DigitalAsset)3342_storage)": {
        "encoding": "mapping",
        "key": "t_uint256",
        "label": "mapping(uint256 => struct Fisch.DigitalAsset)",
        "numberOfBytes": "32",
        "value": "t_struct(DigitalAsset)3342_storage"
      },
      "t_string_storage": {
        "encoding": "bytes",
        "label": "string",
        "numberOfBytes": "32"
      },
      "t_struct(Counter)1795_storage": {
        "encoding": "inplace",
        "label": "struct Counters.Counter",
        "members": [
          {
            "astId": 1794,
            "contract": "contracts/Fisch.sol:Fisch",
            "label": "_value",
            "offset": 0,
            "slot": "0",
            "type": "t_uint256"
          }
        ],
        "numberOfBytes": "32"
      },
      "t_struct(DigitalAsset)3342_storage": {
        "encoding": "inplace",
        "label": "struct Fisch.DigitalAsset",
        "members": [
          {
            "astId": 3317,
            "contract": "contracts/Fisch.sol:Fisch",
            "label": "owner",
            "offset": 0,
            "slot": "0",
            "type": "t_address"
          },
          {
            "astId": 3319,
            "contract": "contracts/Fisch.sol:Fisch",
            "label": "title",
            "offset": 0,
            "slot": "1",
            "type": "t_string_storage"
          },
          {
            "astId": 3321,
            "contract": "contracts/Fisch.sol:Fisch",
            "label": "description",
            "offset": 0,
            "slot": "2",
            "type": "t_string_storage"
          },
          {
            "astId": 3323,
            "contract": "contracts/Fisch.sol:Fisch",
            "label": "tokenId",
            "offset": 0,
            "slot": "3",
            "type": "t_uint256"
          },
          {
            "astId": 3325,
            "contract": "contracts/Fisch.sol:Fisch",
            "label": "price",
            "offset": 0,
            "slot": "4",
            "type": "t_uint256"
          },
          {
            "astId": 3327,
            "contract": "contracts/Fisch.sol:Fisch",
            "label": "assetURI",
            "offset": 0,
            "slot": "5",
            "type": "t_string_storage"
          },
          {
            "astId": 3329,
            "contract": "contracts/Fisch.sol:Fisch",
            "label": "revenue",
            "offset": 0,
            "slot": "6",
            "type": "t_uint256"
          },
          {
            "astId": 3331,
            "contract": "contracts/Fisch.sol:Fisch",
            "label": "expenses",
            "offset": 0,
            "slot": "7",
            "type": "t_uint256"
          },
          {
            "astId": 3333,
            "contract": "contracts/Fisch.sol:Fisch",
            "label": "traffic",
            "offset": 0,
            "slot": "8",
            "type": "t_uint256"
          },
          {
            "astId": 3335,
            "contract": "contracts/Fisch.sol:Fisch",
            "label": "productLink",
            "offset": 0,
            "slot": "9",
            "type": "t_string_storage"
          },
          {
            "astId": 3337,
            "contract": "contracts/Fisch.sol:Fisch",
            "label": "isFrozen",
            "offset": 0,
            "slot": "10",
            "type": "t_bool"
          },
          {
            "astId": 3339,
            "contract": "contracts/Fisch.sol:Fisch",
            "label": "ownerEmail",
            "offset": 0,
            "slot": "11",
            "type": "t_string_storage"
          },
          {
            "astId": 3341,
            "contract": "contracts/Fisch.sol:Fisch",
            "label": "isCollateral",
            "offset": 0,
            "slot": "12",
            "type": "t_bool"
          }
        ],
        "numberOfBytes": "416"
      },
      "t_uint256": {
        "encoding": "inplace",
        "label": "uint256",
        "numberOfBytes": "32"
      }
    }
  }
}