{
  "address": "0xc665F05f7821761aeDaf4EecB4672AC967CCe45a",
  "abi": [
    {
      "inputs": [
        {
          "internalType": "contract Fisch",
          "name": "_nftCollateralAddress",
          "type": "address"
        }
      ],
      "stateMutability": "nonpayable",
      "type": "constructor"
    },
    {
      "inputs": [],
      "name": "LoanIsLocked",
      "type": "error"
    },
    {
      "inputs": [],
      "name": "LoanNotActive",
      "type": "error"
    },
    {
      "inputs": [
        {
          "internalType": "address",
          "name": "sender",
          "type": "address"
        },
        {
          "internalType": "address",
          "name": "receiver",
          "type": "address"
        }
      ],
      "name": "SenderNotReceiver",
      "type": "error"
    },
    {
      "inputs": [],
      "name": "TransferFailed",
      "type": "error"
    },
    {
      "anonymous": false,
      "inputs": [
        {
          "indexed": false,
          "internalType": "uint256",
          "name": "lenderId",
          "type": "uint256"
        },
        {
          "indexed": false,
          "internalType": "uint256",
          "name": "borrowerId",
          "type": "uint256"
        },
        {
          "indexed": false,
          "internalType": "address",
          "name": "lender",
          "type": "address"
        },
        {
          "indexed": false,
          "internalType": "address",
          "name": "borrower",
          "type": "address"
        },
        {
          "indexed": false,
          "internalType": "uint256",
          "name": "amount",
          "type": "uint256"
        },
        {
          "indexed": false,
          "internalType": "address",
          "name": "liquidator",
          "type": "address"
        }
      ],
      "name": "CollateralLiquidated",
      "type": "event"
    },
    {
      "anonymous": false,
      "inputs": [
        {
          "indexed": false,
          "internalType": "uint256",
          "name": "currentAvailableLendAmount",
          "type": "uint256"
        },
        {
          "indexed": false,
          "internalType": "uint256",
          "name": "innitialLendAmount",
          "type": "uint256"
        },
        {
          "indexed": false,
          "internalType": "address",
          "name": "lender",
          "type": "address"
        },
        {
          "indexed": false,
          "internalType": "uint256",
          "name": "loanId",
          "type": "uint256"
        }
      ],
      "name": "FundsAdded",
      "type": "event"
    },
    {
      "anonymous": false,
      "inputs": [
        {
          "indexed": false,
          "internalType": "uint256",
          "name": "lenderId",
          "type": "uint256"
        },
        {
          "indexed": false,
          "internalType": "uint256",
          "name": "borrowerId",
          "type": "uint256"
        },
        {
          "indexed": false,
          "internalType": "address",
          "name": "lender",
          "type": "address"
        },
        {
          "indexed": false,
          "internalType": "address",
          "name": "borrower",
          "type": "address"
        },
        {
          "indexed": false,
          "internalType": "uint256",
          "name": "amount",
          "type": "uint256"
        }
      ],
      "name": "LoanApproved",
      "type": "event"
    },
    {
      "anonymous": false,
      "inputs": [
        {
          "indexed": false,
          "internalType": "uint256",
          "name": "borrowId",
          "type": "uint256"
        },
        {
          "indexed": false,
          "internalType": "uint256",
          "name": "amount",
          "type": "uint256"
        },
        {
          "indexed": false,
          "internalType": "uint256",
          "name": "lenderId",
          "type": "uint256"
        },
        {
          "indexed": false,
          "internalType": "address",
          "name": "lender",
          "type": "address"
        },
        {
          "indexed": false,
          "internalType": "address",
          "name": "borrower",
          "type": "address"
        }
      ],
      "name": "LoanBorrowed",
      "type": "event"
    },
    {
      "anonymous": false,
      "inputs": [
        {
          "indexed": false,
          "internalType": "uint256",
          "name": "lenderId",
          "type": "uint256"
        },
        {
          "indexed": false,
          "internalType": "address",
          "name": "lender",
          "type": "address"
        },
        {
          "indexed": false,
          "internalType": "uint256",
          "name": "amount",
          "type": "uint256"
        },
        {
          "indexed": false,
          "internalType": "bool",
          "name": "isActive",
          "type": "bool"
        }
      ],
      "name": "LoanCancelled",
      "type": "event"
    },
    {
      "anonymous": false,
      "inputs": [
        {
          "indexed": false,
          "internalType": "uint256",
          "name": "amount",
          "type": "uint256"
        },
        {
          "indexed": false,
          "internalType": "uint256",
          "name": "lenderId",
          "type": "uint256"
        },
        {
          "indexed": false,
          "internalType": "address",
          "name": "lender",
          "type": "address"
        }
      ],
      "name": "LoanCreated",
      "type": "event"
    },
    {
      "anonymous": false,
      "inputs": [
        {
          "indexed": false,
          "internalType": "uint256",
          "name": "loanId",
          "type": "uint256"
        },
        {
          "indexed": false,
          "internalType": "bool",
          "name": "locked",
          "type": "bool"
        }
      ],
      "name": "LoanLocked",
      "type": "event"
    },
    {
      "anonymous": false,
      "inputs": [
        {
          "indexed": false,
          "internalType": "uint256",
          "name": "lenderId",
          "type": "uint256"
        },
        {
          "indexed": false,
          "internalType": "uint256",
          "name": "borrowerId",
          "type": "uint256"
        },
        {
          "indexed": false,
          "internalType": "address",
          "name": "lender",
          "type": "address"
        },
        {
          "indexed": false,
          "internalType": "address",
          "name": "borrower",
          "type": "address"
        },
        {
          "indexed": false,
          "internalType": "uint256",
          "name": "amount",
          "type": "uint256"
        }
      ],
      "name": "LoanRepayed",
      "type": "event"
    },
    {
      "anonymous": false,
      "inputs": [
        {
          "indexed": false,
          "internalType": "uint256",
          "name": "loanId",
          "type": "uint256"
        },
        {
          "indexed": false,
          "internalType": "bool",
          "name": "locked",
          "type": "bool"
        }
      ],
      "name": "LoanUnLocked",
      "type": "event"
    },
    {
      "anonymous": false,
      "inputs": [
        {
          "indexed": true,
          "internalType": "address",
          "name": "previousOwner",
          "type": "address"
        },
        {
          "indexed": true,
          "internalType": "address",
          "name": "newOwner",
          "type": "address"
        }
      ],
      "name": "OwnershipTransferred",
      "type": "event"
    },
    {
      "stateMutability": "payable",
      "type": "fallback"
    },
    {
      "inputs": [],
      "name": "PRIVATE_SALE",
      "outputs": [
        {
          "internalType": "bytes32",
          "name": "",
          "type": "bytes32"
        }
      ],
      "stateMutability": "view",
      "type": "function"
    },
    {
      "inputs": [],
      "name": "PUBLIC_SALE",
      "outputs": [
        {
          "internalType": "bytes32",
          "name": "",
          "type": "bytes32"
        }
      ],
      "stateMutability": "view",
      "type": "function"
    },
    {
      "inputs": [
        {
          "internalType": "uint256",
          "name": "_loanId",
          "type": "uint256"
        }
      ],
      "name": "addfunds",
      "outputs": [],
      "stateMutability": "payable",
      "type": "function"
    },
    {
      "inputs": [
        {
          "internalType": "uint256",
          "name": "_borrowerId",
          "type": "uint256"
        }
      ],
      "name": "approveLoan",
      "outputs": [],
      "stateMutability": "nonpayable",
      "type": "function"
    },
    {
      "inputs": [
        {
          "internalType": "uint256",
          "name": "_lenderId",
          "type": "uint256"
        },
        {
          "internalType": "uint256",
          "name": "_borrowAmount",
          "type": "uint256"
        },
        {
          "internalType": "uint256",
          "name": "_nftCollateralTokenId",
          "type": "uint256"
        },
        {
          "internalType": "address",
          "name": "receiverAddress",
          "type": "address"
        }
      ],
      "name": "borrow",
      "outputs": [],
      "stateMutability": "nonpayable",
      "type": "function"
    },
    {
      "inputs": [
        {
          "internalType": "uint256",
          "name": "pricipalAmount",
          "type": "uint256"
        },
        {
          "internalType": "uint256",
          "name": "interestRate",
          "type": "uint256"
        },
        {
          "internalType": "uint256",
          "name": "durationMonths",
          "type": "uint256"
        }
      ],
      "name": "calculateLoanInterest",
      "outputs": [
        {
          "internalType": "uint256",
          "name": "si",
          "type": "uint256"
        }
      ],
      "stateMutability": "pure",
      "type": "function"
    },
    {
      "inputs": [
        {
          "internalType": "uint256",
          "name": "_lenderId",
          "type": "uint256"
        }
      ],
      "name": "cancelLoan",
      "outputs": [],
      "stateMutability": "nonpayable",
      "type": "function"
    },
    {
      "inputs": [
        {
          "internalType": "uint256",
          "name": "_noOfMonth",
          "type": "uint256"
        }
      ],
      "name": "convertMonthsToSeconds",
      "outputs": [
        {
          "internalType": "uint256",
          "name": "secondsByMonth",
          "type": "uint256"
        }
      ],
      "stateMutability": "pure",
      "type": "function"
    },
    {
      "inputs": [
        {
          "internalType": "uint256",
          "name": "_noOfMonth",
          "type": "uint256"
        }
      ],
      "name": "convertMonthsToWeeks",
      "outputs": [
        {
          "internalType": "uint256",
          "name": "noOfweeks",
          "type": "uint256"
        }
      ],
      "stateMutability": "pure",
      "type": "function"
    },
    {
      "inputs": [
        {
          "internalType": "uint256",
          "name": "noOfWeeks",
          "type": "uint256"
        }
      ],
      "name": "convertWeeksToSeconds",
      "outputs": [
        {
          "internalType": "uint256",
          "name": "secondsByWeeks",
          "type": "uint256"
        }
      ],
      "stateMutability": "pure",
      "type": "function"
    },
    {
      "inputs": [
        {
          "internalType": "uint256",
          "name": "_interestRate",
          "type": "uint256"
        },
        {
          "internalType": "uint256",
          "name": "_loanDurationMonthCount",
          "type": "uint256"
        }
      ],
      "name": "createOrListLoan",
      "outputs": [],
      "stateMutability": "payable",
      "type": "function"
    },
    {
      "inputs": [],
      "name": "defaultInterestRate",
      "outputs": [
        {
          "internalType": "uint256",
          "name": "",
          "type": "uint256"
        }
      ],
      "stateMutability": "view",
      "type": "function"
    },
    {
      "inputs": [
        {
          "internalType": "uint256",
          "name": "_borrowId",
          "type": "uint256"
        }
      ],
      "name": "fetchBorrowSingle",
      "outputs": [
        {
          "components": [
            {
              "internalType": "uint256",
              "name": "borrowerId",
              "type": "uint256"
            },
            {
              "internalType": "address",
              "name": "borrower",
              "type": "address"
            },
            {
              "internalType": "uint256",
              "name": "innitialBorrowAmount",
              "type": "uint256"
            },
            {
              "internalType": "uint256",
              "name": "currentBorrowAmount",
              "type": "uint256"
            },
            {
              "internalType": "uint256",
              "name": "amountAlreadyRemitted",
              "type": "uint256"
            },
            {
              "internalType": "uint256",
              "name": "deadline",
              "type": "uint256"
            },
            {
              "internalType": "uint256",
              "name": "interest",
              "type": "uint256"
            },
            {
              "internalType": "uint256",
              "name": "lenderId",
              "type": "uint256"
            },
            {
              "internalType": "uint256",
              "name": "nftCollateralTokenId",
              "type": "uint256"
            },
            {
              "internalType": "address",
              "name": "receiverAddress",
              "type": "address"
            },
            {
              "internalType": "bool",
              "name": "isApproved",
              "type": "bool"
            },
            {
              "internalType": "bool",
              "name": "isRepaid",
              "type": "bool"
            }
          ],
          "internalType": "struct Loan.Borrower",
          "name": "",
          "type": "tuple"
        }
      ],
      "stateMutability": "view",
      "type": "function"
    },
    {
      "inputs": [
        {
          "internalType": "uint256",
          "name": "_loanId",
          "type": "uint256"
        }
      ],
      "name": "fetchLoanSingle",
      "outputs": [
        {
          "components": [
            {
              "internalType": "uint256",
              "name": "loanId",
              "type": "uint256"
            },
            {
              "internalType": "uint256",
              "name": "innitialLendAmount",
              "type": "uint256"
            },
            {
              "internalType": "uint256",
              "name": "currentAvailableLendAmount",
              "type": "uint256"
            },
            {
              "internalType": "uint256",
              "name": "amountRepaid",
              "type": "uint256"
            },
            {
              "internalType": "uint256",
              "name": "borrowerId",
              "type": "uint256"
            },
            {
              "internalType": "uint256",
              "name": "interestRate",
              "type": "uint256"
            },
            {
              "internalType": "uint256",
              "name": "loanOutDuration",
              "type": "uint256"
            },
            {
              "internalType": "bool",
              "name": "locked",
              "type": "bool"
            },
            {
              "internalType": "bool",
              "name": "isActive",
              "type": "bool"
            },
            {
              "internalType": "address",
              "name": "lender",
              "type": "address"
            },
            {
              "internalType": "uint256",
              "name": "loanDurationInMonthCount",
              "type": "uint256"
            }
          ],
          "internalType": "struct Loan.Lender",
          "name": "",
          "type": "tuple"
        }
      ],
      "stateMutability": "view",
      "type": "function"
    },
    {
      "inputs": [
        {
          "internalType": "uint256",
          "name": "_borrowerId",
          "type": "uint256"
        },
        {
          "internalType": "string",
          "name": "_saleType",
          "type": "string"
        }
      ],
      "name": "liquidateCollateral",
      "outputs": [],
      "stateMutability": "payable",
      "type": "function"
    },
    {
      "inputs": [
        {
          "internalType": "uint256",
          "name": "_loanId",
          "type": "uint256"
        }
      ],
      "name": "lockLoan",
      "outputs": [],
      "stateMutability": "payable",
      "type": "function"
    },
    {
      "inputs": [],
      "name": "nftCollateral",
      "outputs": [
        {
          "internalType": "contract Fisch",
          "name": "",
          "type": "address"
        }
      ],
      "stateMutability": "view",
      "type": "function"
    },
    {
      "inputs": [],
      "name": "owner",
      "outputs": [
        {
          "internalType": "address",
          "name": "",
          "type": "address"
        }
      ],
      "stateMutability": "view",
      "type": "function"
    },
    {
      "inputs": [],
      "name": "renounceOwnership",
      "outputs": [],
      "stateMutability": "nonpayable",
      "type": "function"
    },
    {
      "inputs": [
        {
          "internalType": "uint256",
          "name": "_borrowerId",
          "type": "uint256"
        }
      ],
      "name": "repayLoan",
      "outputs": [],
      "stateMutability": "payable",
      "type": "function"
    },
    {
      "inputs": [
        {
          "internalType": "address",
          "name": "newOwner",
          "type": "address"
        }
      ],
      "name": "transferOwnership",
      "outputs": [],
      "stateMutability": "nonpayable",
      "type": "function"
    },
    {
      "inputs": [
        {
          "internalType": "uint256",
          "name": "_loanId",
          "type": "uint256"
        }
      ],
      "name": "unlockLoan",
      "outputs": [],
      "stateMutability": "payable",
      "type": "function"
    },
    {
      "stateMutability": "payable",
      "type": "receive"
    }
  ],
  "transactionHash": "0x5f3290c47fc17264d683b08e291c49f491ebd4acbf73da1e4116cfe0e81a9730",
  "args": [
    "0x509815B83b091d86f76919F7f5891a2E48545798"
  ],
  "numDeployments": 2,
  "solcInputHash": "7f362f68259767045c94503a70211b54",
  "bytecode": "0x6080604052600c60025560056003553480156200001b57600080fd5b506040516200217a3803806200217a8339810160408190526200003e91620000c3565b620000493362000073565b60018055600680546001600160a01b0319166001600160a01b0392909216919091179055620000f5565b600080546001600160a01b038381166001600160a01b0319831681178455604051919092169283917f8be0079c531659141344cd1fd0a4f28419497f9722a3daafe3b4186f6b6457e09190a35050565b600060208284031215620000d657600080fd5b81516001600160a01b0381168114620000ee57600080fd5b9392505050565b61207580620001056000396000f3fe60806040526004361061012d5760003560e01c806398c83a16116100a5578063bd857bad1161006c578063bd857bad1461030d578063bdbfa3de1461032d578063d5622c7a1461034d578063d789b9031461036d578063f2fde38b14610380578063fd797a9e146103a057005b806398c83a1614610292578063a180f61b146102a7578063aadc1ac1146102ba578063ab7b1c89146102da578063b1032e75146102ed57005b80636e1b7925116100f45780636e1b7925146101d5578063715018a6146101f55780637223be951461020a57806376a5213d1461023757806386c1c74d1461024a5780638da5cb5b1461026057005b80630fca15e7146101365780631ec33cdd14610149578063242011d51461017f5780634d57f0c91461019f5780635f89584e146101b257005b3661013457005b005b610134610144366004611a06565b6103c0565b34801561015557600080fd5b50610169610164366004611a06565b610462565b6040516101769190611a1f565b60405180910390f35b34801561018b57600080fd5b5061013461019a366004611adf565b610591565b6101346101ad366004611bb9565b6108b2565b3480156101be57600080fd5b506101c7610ae0565b604051908152602001610176565b3480156101e157600080fd5b506101c76101f0366004611a06565b610b14565b34801561020157600080fd5b50610134610b29565b34801561021657600080fd5b5061022a610225366004611a06565b610b3d565b6040516101769190611c43565b610134610245366004611a06565b610c4a565b34801561025657600080fd5b506101c760035481565b34801561026c57600080fd5b506000546001600160a01b03165b6040516001600160a01b039091168152602001610176565b34801561029e57600080fd5b506101c7610d48565b6101346102b5366004611a06565b610d68565b3480156102c657600080fd5b506101346102d5366004611a06565b610dfd565b6101346102e8366004611a06565b611229565b3480156102f957600080fd5b506101c7610308366004611a06565b6113df565b34801561031957600080fd5b5060065461027a906001600160a01b031681565b34801561033957600080fd5b50610134610348366004611a06565b6113ec565b34801561035957600080fd5b506101c7610368366004611cd3565b6114ae565b61013461037b366004611cff565b6114da565b34801561038c57600080fd5b5061013461039b366004611d21565b611665565b3480156103ac57600080fd5b506101c76103bb366004611a06565b6116db565b600081815260076020819052604090912001546201000090046001600160a01b031633811461040a5760405162461bcd60e51b815260040161040190611d3e565b60405180910390fd5b6000828152600760208181526040808420909201805460ff191690558151858152908101929092527f617479dbcccc23acb59aefc54cc2e0479b048270af3f740d2a9b09f9f66efbae91015b60405180910390a15050565b6104dc6040518061018001604052806000815260200160006001600160a01b031681526020016000815260200160008152602001600081526020016000815260200160008152602001600081526020016000815260200160006001600160a01b031681526020016000151581526020016000151581525090565b506000908152600860208181526040928390208351610180810185528154815260018201546001600160a01b03908116938201939093526002820154948101949094526003810154606085015260048101546080850152600581015460a0850152600681015460c0850152600781015460e08501529182015461010084015260099091015490811661012083015260ff600160a01b820481161515610140840152600160a81b90910416151561016082015290565b6001600160a01b03811633146105cb57604051637c48fd7760e11b81523360048201526001600160a01b0382166024820152604401610401565b60008481526007602081905260409091200154610100900460ff1661060357604051630417bc2360e11b815260040160405180910390fd5b6000848152600760208190526040909120015460ff16156106375760405163088e7d9560e21b815260040160405180910390fd5b610645600480546001019055565b600061065060045490565b9050604051806101800160405280828152602001336001600160a01b0316815260200185815260200160008152602001600081526020016000815260200160008152602001868152602001848152602001336001600160a01b0316815260200160001515815260200160001515815250600860008381526020019081526020016000206000820151816000015560208201518160010160006101000a8154816001600160a01b0302191690836001600160a01b0316021790555060408201518160020155606082015181600301556080820151816004015560a0820151816005015560c0820151816006015560e0820151816007015561010082015181600801556101208201518160090160006101000a8154816001600160a01b0302191690836001600160a01b031602179055506101408201518160090160146101000a81548160ff0219169083151502179055506101608201518160090160156101000a81548160ff0219169083151502179055509050507f2f2fa4b6641567f948e65b0a4104b370e8dd9766ee3b6cf99438b0f908df56356007600083815260200190815260200160002060000154600860008481526020019081526020016000206002015487600760008a815260200190815260200160002060070160029054906101000a90046001600160a01b03166008600087815260200190815260200160002060010160009054906101000a90046001600160a01b03166040516108a3959493929190948552602085019390935260408401919091526001600160a01b03908116606084015216608082015260a00190565b60405180910390a15050505050565b6000828152600860208181526040928390208351610180810185528154815260018201546001600160a01b03908116938201939093526002820154948101949094526003810154606085015260048101546080850152600581015460a08501819052600682015460c0860152600782015460e0860152928101546101008501526009015490811661012084015260ff600160a01b820481161515610140850152600160a81b90910416151561016083015283919042116109aa5760405162461bcd60e51b81526020600482015260136024820152724c6f616e206973206e6f74206f76657264756560681b6044820152606401610401565b6000836040516020016109bd9190611d95565b6040516020818303038152906040528051906020012090506040516020016109f6906a5055424c49435f53414c4560a81b8152600b0190565b60405160208183030381529060405280519060200120811415610a195750610ada565b600085815260086020819052604090912090810154600790910154610a40919087906116f9565b600085815260086020818152604080842060078082015480875281855283872090910154958b9052938352600181015460029091015482519485529284018a9052620100009094046001600160a01b0390811691840191909152909216606082015260808101919091523360a08201527f87390dbcb6edae20b6a7cdc35a4c70b99cc1c4c9fe48a847226a3b647aea619f9060c0016108a3565b50505050565b6040516a5055424c49435f53414c4560a81b6020820152602b015b6040516020818303038152906040528051906020012081565b6000610b238262093a80611dde565b92915050565b610b316118ea565b610b3b6000611944565b565b610ba76040518061016001604052806000815260200160008152602001600081526020016000815260200160008152602001600081526020016000815260200160001515815260200160001515815260200160006001600160a01b03168152602001600081525090565b50600090815260076020818152604092839020835161016081018552815481526001820154928101929092526002810154938201939093526003830154606082015260048301546080820152600583015460a0820152600683015460c08201529082015460ff808216151560e08401526101008083049091161515908301526201000090046001600160a01b031661012082015260089091015461014082015290565b600081815260076020819052604090912001546201000090046001600160a01b0316338114610c8b5760405162461bcd60e51b815260040161040190611d3e565b600082815260076020526040812060028101805491923492610cae908490611dfd565b9250508190555034816001016000828254610cc99190611dfd565b90915550506002810154600182015460008581526007602081815260409283902090910154825194855290840192909252620100009091046001600160a01b031690820152606081018490527f0b6cf0e32a8f9281d882d68dd778489d19ecbfa2448d049fedda911c18232061906080015b60405180910390a1505050565b6040516b505249564154455f53414c4560a01b6020820152602c01610afb565b600081815260076020819052604090912001546201000090046001600160a01b0316338114610da95760405162461bcd60e51b815260040161040190611d3e565b600082815260076020818152604092839020909101805460ff191660019081179091558251858152918201527f8d79bf0f6b93a7b7c9ab5c9031ab53e80fa558cef462d14aceb66d51ee4ac5cb9101610456565b610e05611994565b600081815260086020818152604080842060078082015486529092529283902060018201546006549383015494516331a9108f60e11b81526004810195909552919390926001600160a01b03928316921690636352211e9060240160206040518083038186803b158015610e7857600080fd5b505afa158015610e8c573d6000803e3d6000fd5b505050506040513d601f19601f82011682018060405250810190610eb09190611e25565b6001600160a01b031614610eff5760405162461bcd60e51b81526020600482015260166024820152752137b93937bbb2b9103737ba1027232a1037bbb732b960511b6044820152606401610401565b6006546008830154604051636f1a0af560e01b81526001600160a01b0390921691636f1a0af591610f369160040190815260200190565b60006040518083038186803b158015610f4e57600080fd5b505afa158015610f62573d6000803e3d6000fd5b505050506040513d6000823e601f3d908101601f19168201604052610f8a9190810190611e97565b610180015115610fe85760405162461bcd60e51b815260206004820152602360248201527f4e4654204973206e6f7420456c696769626c65206173206120436f6c6c6174656044820152621c985b60ea1b6064820152608401610401565b8160020154816002015410156110405760405162461bcd60e51b815260206004820152601860248201527f4e6f7420656e6f756768206361736820666f72204c6f616e00000000000000006044820152606401610401565b6006546008830154604051631af4f1b760e31b81526001600160a01b039092169163d7a78db8916110779160040190815260200190565b600060405180830381600087803b15801561109157600080fd5b505af11580156110a5573d6000803e3d6000fd5b505050506110c4826002015482600201546119ee90919063ffffffff16565b600282015560088101546110e2906110db906116db565b42906119fa565b6005830155600282015460038301546110fa916119fa565b600383015560098201805460ff60a01b1916600160a01b179055600282015460405160009133918381818185875af1925050503d8060008114611159576040519150601f19603f3d011682016040523d82523d6000602084013e61115e565b606091505b5050905061118761117c8460020154846005015485600801546114ae565b6002850154906119fa565b6002840155806111aa576040516312171d8360e31b815260040160405180910390fd5b600783810154908301546001850154600286015460408051948552602085018990526001600160a01b03620100009094048416908501529116606083015260808201527f0da39fecb301ec545e02d61d98a1bbb25e3c0065143ab4f75a74de6cdee433809060a00160405180910390a150505061122660018055565b50565b611231611994565b60008181526008602090815260408083206007808201548552909252909120348160020160008282546112649190611dfd565b925050819055503481600301600082825461127f9190611dfd565b925050819055503482600401600082825461129a9190611dfd565b909155505060038201543411156112b357600060038301555b816003015434116112d857348260030160008282546112d29190612006565b90915550505b81600201548260040154106112fd5760098201805460ff60a81b1916600160a81b1790555b6006546008830154604051633311fe2360e11b81526001600160a01b0390921691636623fc46916113349160040190815260200190565b600060405180830381600087803b15801561134e57600080fd5b505af1158015611362573d6000803e3d6000fd5b505050506007828101548354918301546001850154604080519384526020840194909452620100009091046001600160a01b039081168385015216606082015234608082015290517f8cfb4bbbef6e38ab280adc35e23333873cabe942691efabeb31540edc752501b9181900360a00190a1505061122660018055565b6000610b23826004611dde565b600081815260076020819052604090912001546201000090046001600160a01b031633811461142d5760405162461bcd60e51b815260040161040190611d3e565b600082815260076020818152604092839020918201805461ff0019169081905560019092015483518681526001600160a01b03620100008504169281019290925292810192909252610100900460ff16151560608201527f684b62b7cc6184a3cefa229c2fff1fff4c2f15bdcb6f3eff86846abf05d9329590608001610456565b60006104b0826114be8587611dde565b6114c89190611dde565b6114d2919061201d565b949350505050565b6114e8600580546001019055565b60006114f360055490565b90506040518061016001604052808281526020013481526020013481526020016000815260200160008152602001848152602001611541846000141561153b576002546116db565b846116db565b815260006020820152600160408201523360608201526080018361156757600254611569565b835b905260008281526007602081815260409283902084518155848201516001820181905585850151600283015560608087015160038401556080870151600484015560a0870151600584015560c0870151600684015560e08701519483018054610100808a01516101208b015161ffff1990931698151561ff00191698909817971515029690961762010000600160b01b031916620100006001600160a01b0397881681029190911791829055610140909801516008909401939093558551918252928101879052949004909116918301919091527f581f51c2b24b06d2a5e1f85b42d0d9cd4bb9506164d033f6146e21e35faa4aab9101610d3b565b61166d6118ea565b6001600160a01b0381166116d25760405162461bcd60e51b815260206004820152602660248201527f4f776e61626c653a206e6577206f776e657220697320746865207a65726f206160448201526564647265737360d01b6064820152608401610401565b61122681611944565b6000806116e7836113df565b90506116f281610b14565b9392505050565b600654604051633311fe2360e11b8152600481018590526001600160a01b0390911690636623fc4690602401600060405180830381600087803b15801561173f57600080fd5b505af1158015611753573d6000803e3d6000fd5b505050600083815260086020908152604080832085845260079092529091206003820154919250903410156117d85760405162461bcd60e51b815260206004820152602560248201527f4c697175696461746f7220416d6f756e743a20696e73756666696369656e742060448201526466756e647360d81b6064820152608401610401565b6006546001830154604051632142170760e11b81526001600160a01b039182166004820152336024820152604481018890529116906342842e0e90606401600060405180830381600087803b15801561183057600080fd5b505af1158015611844573d6000803e3d6000fd5b505050503481600201600082825461185c9190611dfd565b92505081905550348160030160008282546118779190611dfd565b909155505060038201543411156118a5576000600383015560098201805460ff60a81b1916600160a81b1790555b816003015434116118ca57348260030160008282546118c49190612006565b90915550505b348260040160008282546118de9190611dfd565b90915550505050505050565b6000546001600160a01b03163314610b3b5760405162461bcd60e51b815260206004820181905260248201527f4f776e61626c653a2063616c6c6572206973206e6f7420746865206f776e65726044820152606401610401565b600080546001600160a01b038381166001600160a01b0319831681178455604051919092169283917f8be0079c531659141344cd1fd0a4f28419497f9722a3daafe3b4186f6b6457e09190a35050565b600260015414156119e75760405162461bcd60e51b815260206004820152601f60248201527f5265656e7472616e637947756172643a207265656e7472616e742063616c6c006044820152606401610401565b6002600155565b60006116f28284612006565b60006116f28284611dfd565b600060208284031215611a1857600080fd5b5035919050565b81518152602080830151610180830191611a43908401826001600160a01b03169052565b5060408301516040830152606083015160608301526080830151608083015260a083015160a083015260c083015160c083015260e083015160e083015261010080840151818401525061012080840151611aa7828501826001600160a01b03169052565b505061014083810151151590830152610160928301511515929091019190915290565b6001600160a01b038116811461122657600080fd5b60008060008060808587031215611af557600080fd5b8435935060208501359250604085013591506060850135611b1581611aca565b939692955090935050565b634e487b7160e01b600052604160045260246000fd5b6040516101a0810167ffffffffffffffff81118282101715611b5a57611b5a611b20565b60405290565b604051601f8201601f1916810167ffffffffffffffff81118282101715611b8957611b89611b20565b604052919050565b600067ffffffffffffffff821115611bab57611bab611b20565b50601f01601f191660200190565b60008060408385031215611bcc57600080fd5b82359150602083013567ffffffffffffffff811115611bea57600080fd5b8301601f81018513611bfb57600080fd5b8035611c0e611c0982611b91565b611b60565b818152866020838501011115611c2357600080fd5b816020840160208301376000602083830101528093505050509250929050565b600061016082019050825182526020830151602083015260408301516040830152606083015160608301526080830151608083015260a083015160a083015260c083015160c083015260e0830151611c9f60e084018215159052565b5061010083810151151590830152610120808401516001600160a01b03169083015261014092830151929091019190915290565b600080600060608486031215611ce857600080fd5b505081359360208301359350604090920135919050565b60008060408385031215611d1257600080fd5b50508035926020909101359150565b600060208284031215611d3357600080fd5b81356116f281611aca565b60208082526011908201527029b2b73232b9103737ba102632b73232b960791b604082015260600190565b60005b83811015611d84578181015183820152602001611d6c565b83811115610ada5750506000910152565b6020815260008251806020840152611db4816040850160208701611d69565b601f01601f19169190910160400192915050565b634e487b7160e01b600052601160045260246000fd5b6000816000190483118215151615611df857611df8611dc8565b500290565b60008219821115611e1057611e10611dc8565b500190565b8051611e2081611aca565b919050565b600060208284031215611e3757600080fd5b81516116f281611aca565b600082601f830112611e5357600080fd5b8151611e61611c0982611b91565b818152846020838601011115611e7657600080fd5b6114d2826020830160208701611d69565b80518015158114611e2057600080fd5b600060208284031215611ea957600080fd5b815167ffffffffffffffff80821115611ec157600080fd5b908301906101a08286031215611ed657600080fd5b611ede611b36565b611ee783611e15565b8152602083015182811115611efb57600080fd5b611f0787828601611e42565b602083015250604083015182811115611f1f57600080fd5b611f2b87828601611e42565b604083015250606083015160608201526080830151608082015260a083015182811115611f5757600080fd5b611f6387828601611e42565b60a08301525060c083015160c082015260e083015160e08201526101008084015181830152506101208084015183811115611f9d57600080fd5b611fa988828701611e42565b828401525050610140611fbd818501611e87565b908201526101608381015183811115611fd557600080fd5b611fe188828701611e42565b8284015250506101809150611ff7828401611e87565b91810191909152949350505050565b60008282101561201857612018611dc8565b500390565b60008261203a57634e487b7160e01b600052601260045260246000fd5b50049056fea2646970667358221220325b85dca9a61e4efedb17cc8bbd2e2b63c9f3e72dde60849d605244782eeb8264736f6c63430008090033",
  "devdoc": {
    "kind": "dev",
    "methods": {
      "owner()": {
        "details": "Returns the address of the current owner."
      },
      "renounceOwnership()": {
        "details": "Leaves the contract without owner. It will not be possible to call `onlyOwner` functions anymore. Can only be called by the current owner. NOTE: Renouncing ownership will leave the contract without an owner, thereby removing any functionality that is only available to the owner."
      },
      "transferOwnership(address)": {
        "details": "Transfers ownership of the contract to a new account (`newOwner`). Can only be called by the current owner."
      }
    },
    "version": 1
  },
  "userdoc": {
    "kind": "user",
    "methods": {},
    "version": 1
  },
  "storageLayout": {
    "storage": [
      {
        "astId": 396,
        "contract": "contracts/Loan.sol:Loan",
        "label": "_owner",
        "offset": 0,
        "slot": "0",
        "type": "t_address"
      },
      {
        "astId": 4176,
        "contract": "contracts/Loan.sol:Loan",
        "label": "_status",
        "offset": 0,
        "slot": "1",
        "type": "t_uint256"
      },
      {
        "astId": 13738,
        "contract": "contracts/Loan.sol:Loan",
        "label": "_defaultLoanDuration",
        "offset": 0,
        "slot": "2",
        "type": "t_uint256"
      },
      {
        "astId": 13741,
        "contract": "contracts/Loan.sol:Loan",
        "label": "defaultInterestRate",
        "offset": 0,
        "slot": "3",
        "type": "t_uint256"
      },
      {
        "astId": 13764,
        "contract": "contracts/Loan.sol:Loan",
        "label": "_borrowersIds",
        "offset": 0,
        "slot": "4",
        "type": "t_struct(Counter)9218_storage"
      },
      {
        "astId": 13767,
        "contract": "contracts/Loan.sol:Loan",
        "label": "_lendersIds",
        "offset": 0,
        "slot": "5",
        "type": "t_struct(Counter)9218_storage"
      },
      {
        "astId": 13770,
        "contract": "contracts/Loan.sol:Loan",
        "label": "nftCollateral",
        "offset": 0,
        "slot": "6",
        "type": "t_contract(Fisch)13721"
      },
      {
        "astId": 13972,
        "contract": "contracts/Loan.sol:Loan",
        "label": "_lenders",
        "offset": 0,
        "slot": "7",
        "type": "t_mapping(t_uint256,t_struct(Lender)13804_storage)"
      },
      {
        "astId": 13977,
        "contract": "contracts/Loan.sol:Loan",
        "label": "_borrowers",
        "offset": 0,
        "slot": "8",
        "type": "t_mapping(t_uint256,t_struct(Borrower)13829_storage)"
      }
    ],
    "types": {
      "t_address": {
        "encoding": "inplace",
        "label": "address",
        "numberOfBytes": "20"
      },
      "t_bool": {
        "encoding": "inplace",
        "label": "bool",
        "numberOfBytes": "1"
      },
      "t_contract(Fisch)13721": {
        "encoding": "inplace",
        "label": "contract Fisch",
        "numberOfBytes": "20"
      },
      "t_mapping(t_uint256,t_struct(Borrower)13829_storage)": {
        "encoding": "mapping",
        "key": "t_uint256",
        "label": "mapping(uint256 => struct Loan.Borrower)",
        "numberOfBytes": "32",
        "value": "t_struct(Borrower)13829_storage"
      },
      "t_mapping(t_uint256,t_struct(Lender)13804_storage)": {
        "encoding": "mapping",
        "key": "t_uint256",
        "label": "mapping(uint256 => struct Loan.Lender)",
        "numberOfBytes": "32",
        "value": "t_struct(Lender)13804_storage"
      },
      "t_struct(Borrower)13829_storage": {
        "encoding": "inplace",
        "label": "struct Loan.Borrower",
        "members": [
          {
            "astId": 13806,
            "contract": "contracts/Loan.sol:Loan",
            "label": "borrowerId",
            "offset": 0,
            "slot": "0",
            "type": "t_uint256"
          },
          {
            "astId": 13808,
            "contract": "contracts/Loan.sol:Loan",
            "label": "borrower",
            "offset": 0,
            "slot": "1",
            "type": "t_address"
          },
          {
            "astId": 13810,
            "contract": "contracts/Loan.sol:Loan",
            "label": "innitialBorrowAmount",
            "offset": 0,
            "slot": "2",
            "type": "t_uint256"
          },
          {
            "astId": 13812,
            "contract": "contracts/Loan.sol:Loan",
            "label": "currentBorrowAmount",
            "offset": 0,
            "slot": "3",
            "type": "t_uint256"
          },
          {
            "astId": 13814,
            "contract": "contracts/Loan.sol:Loan",
            "label": "amountAlreadyRemitted",
            "offset": 0,
            "slot": "4",
            "type": "t_uint256"
          },
          {
            "astId": 13816,
            "contract": "contracts/Loan.sol:Loan",
            "label": "deadline",
            "offset": 0,
            "slot": "5",
            "type": "t_uint256"
          },
          {
            "astId": 13818,
            "contract": "contracts/Loan.sol:Loan",
            "label": "interest",
            "offset": 0,
            "slot": "6",
            "type": "t_uint256"
          },
          {
            "astId": 13820,
            "contract": "contracts/Loan.sol:Loan",
            "label": "lenderId",
            "offset": 0,
            "slot": "7",
            "type": "t_uint256"
          },
          {
            "astId": 13822,
            "contract": "contracts/Loan.sol:Loan",
            "label": "nftCollateralTokenId",
            "offset": 0,
            "slot": "8",
            "type": "t_uint256"
          },
          {
            "astId": 13824,
            "contract": "contracts/Loan.sol:Loan",
            "label": "receiverAddress",
            "offset": 0,
            "slot": "9",
            "type": "t_address"
          },
          {
            "astId": 13826,
            "contract": "contracts/Loan.sol:Loan",
            "label": "isApproved",
            "offset": 20,
            "slot": "9",
            "type": "t_bool"
          },
          {
            "astId": 13828,
            "contract": "contracts/Loan.sol:Loan",
            "label": "isRepaid",
            "offset": 21,
            "slot": "9",
            "type": "t_bool"
          }
        ],
        "numberOfBytes": "320"
      },
      "t_struct(Counter)9218_storage": {
        "encoding": "inplace",
        "label": "struct Counters.Counter",
        "members": [
          {
            "astId": 9217,
            "contract": "contracts/Loan.sol:Loan",
            "label": "_value",
            "offset": 0,
            "slot": "0",
            "type": "t_uint256"
          }
        ],
        "numberOfBytes": "32"
      },
      "t_struct(Lender)13804_storage": {
        "encoding": "inplace",
        "label": "struct Loan.Lender",
        "members": [
          {
            "astId": 13783,
            "contract": "contracts/Loan.sol:Loan",
            "label": "loanId",
            "offset": 0,
            "slot": "0",
            "type": "t_uint256"
          },
          {
            "astId": 13785,
            "contract": "contracts/Loan.sol:Loan",
            "label": "innitialLendAmount",
            "offset": 0,
            "slot": "1",
            "type": "t_uint256"
          },
          {
            "astId": 13787,
            "contract": "contracts/Loan.sol:Loan",
            "label": "currentAvailableLendAmount",
            "offset": 0,
            "slot": "2",
            "type": "t_uint256"
          },
          {
            "astId": 13789,
            "contract": "contracts/Loan.sol:Loan",
            "label": "amountRepaid",
            "offset": 0,
            "slot": "3",
            "type": "t_uint256"
          },
          {
            "astId": 13791,
            "contract": "contracts/Loan.sol:Loan",
            "label": "borrowerId",
            "offset": 0,
            "slot": "4",
            "type": "t_uint256"
          },
          {
            "astId": 13793,
            "contract": "contracts/Loan.sol:Loan",
            "label": "interestRate",
            "offset": 0,
            "slot": "5",
            "type": "t_uint256"
          },
          {
            "astId": 13795,
            "contract": "contracts/Loan.sol:Loan",
            "label": "loanOutDuration",
            "offset": 0,
            "slot": "6",
            "type": "t_uint256"
          },
          {
            "astId": 13797,
            "contract": "contracts/Loan.sol:Loan",
            "label": "locked",
            "offset": 0,
            "slot": "7",
            "type": "t_bool"
          },
          {
            "astId": 13799,
            "contract": "contracts/Loan.sol:Loan",
            "label": "isActive",
            "offset": 1,
            "slot": "7",
            "type": "t_bool"
          },
          {
            "astId": 13801,
            "contract": "contracts/Loan.sol:Loan",
            "label": "lender",
            "offset": 2,
            "slot": "7",
            "type": "t_address"
          },
          {
            "astId": 13803,
            "contract": "contracts/Loan.sol:Loan",
            "label": "loanDurationInMonthCount",
            "offset": 0,
            "slot": "8",
            "type": "t_uint256"
          }
        ],
        "numberOfBytes": "288"
      },
      "t_uint256": {
        "encoding": "inplace",
        "label": "uint256",
        "numberOfBytes": "32"
      }
    }
  }
}