{
  "address": "0x2D93640DA262e5A2A07df2eF1C20836D367cB414",
  "abi": [
    {
      "inputs": [
        {
          "internalType": "uint256",
          "name": "minDelay",
          "type": "uint256"
        },
        {
          "internalType": "address[]",
          "name": "proposers",
          "type": "address[]"
        },
        {
          "internalType": "address[]",
          "name": "executors",
          "type": "address[]"
        },
        {
          "internalType": "address",
          "name": "admin",
          "type": "address"
        }
      ],
      "stateMutability": "nonpayable",
      "type": "constructor"
    },
    {
      "anonymous": false,
      "inputs": [
        {
          "indexed": true,
          "internalType": "bytes32",
          "name": "id",
          "type": "bytes32"
        },
        {
          "indexed": true,
          "internalType": "uint256",
          "name": "index",
          "type": "uint256"
        },
        {
          "indexed": false,
          "internalType": "address",
          "name": "target",
          "type": "address"
        },
        {
          "indexed": false,
          "internalType": "uint256",
          "name": "value",
          "type": "uint256"
        },
        {
          "indexed": false,
          "internalType": "bytes",
          "name": "data",
          "type": "bytes"
        }
      ],
      "name": "CallExecuted",
      "type": "event"
    },
    {
      "anonymous": false,
      "inputs": [
        {
          "indexed": true,
          "internalType": "bytes32",
          "name": "id",
          "type": "bytes32"
        },
        {
          "indexed": true,
          "internalType": "uint256",
          "name": "index",
          "type": "uint256"
        },
        {
          "indexed": false,
          "internalType": "address",
          "name": "target",
          "type": "address"
        },
        {
          "indexed": false,
          "internalType": "uint256",
          "name": "value",
          "type": "uint256"
        },
        {
          "indexed": false,
          "internalType": "bytes",
          "name": "data",
          "type": "bytes"
        },
        {
          "indexed": false,
          "internalType": "bytes32",
          "name": "predecessor",
          "type": "bytes32"
        },
        {
          "indexed": false,
          "internalType": "uint256",
          "name": "delay",
          "type": "uint256"
        }
      ],
      "name": "CallScheduled",
      "type": "event"
    },
    {
      "anonymous": false,
      "inputs": [
        {
          "indexed": true,
          "internalType": "bytes32",
          "name": "id",
          "type": "bytes32"
        }
      ],
      "name": "Cancelled",
      "type": "event"
    },
    {
      "anonymous": false,
      "inputs": [
        {
          "indexed": false,
          "internalType": "uint256",
          "name": "oldDuration",
          "type": "uint256"
        },
        {
          "indexed": false,
          "internalType": "uint256",
          "name": "newDuration",
          "type": "uint256"
        }
      ],
      "name": "MinDelayChange",
      "type": "event"
    },
    {
      "anonymous": false,
      "inputs": [
        {
          "indexed": true,
          "internalType": "address",
          "name": "previousOwner",
          "type": "address"
        },
        {
          "indexed": true,
          "internalType": "address",
          "name": "newOwner",
          "type": "address"
        }
      ],
      "name": "OwnershipTransferred",
      "type": "event"
    },
    {
      "anonymous": false,
      "inputs": [
        {
          "indexed": true,
          "internalType": "bytes32",
          "name": "role",
          "type": "bytes32"
        },
        {
          "indexed": true,
          "internalType": "bytes32",
          "name": "previousAdminRole",
          "type": "bytes32"
        },
        {
          "indexed": true,
          "internalType": "bytes32",
          "name": "newAdminRole",
          "type": "bytes32"
        }
      ],
      "name": "RoleAdminChanged",
      "type": "event"
    },
    {
      "anonymous": false,
      "inputs": [
        {
          "indexed": true,
          "internalType": "bytes32",
          "name": "role",
          "type": "bytes32"
        },
        {
          "indexed": true,
          "internalType": "address",
          "name": "account",
          "type": "address"
        },
        {
          "indexed": true,
          "internalType": "address",
          "name": "sender",
          "type": "address"
        }
      ],
      "name": "RoleGranted",
      "type": "event"
    },
    {
      "anonymous": false,
      "inputs": [
        {
          "indexed": true,
          "internalType": "bytes32",
          "name": "role",
          "type": "bytes32"
        },
        {
          "indexed": true,
          "internalType": "address",
          "name": "account",
          "type": "address"
        },
        {
          "indexed": true,
          "internalType": "address",
          "name": "sender",
          "type": "address"
        }
      ],
      "name": "RoleRevoked",
      "type": "event"
    },
    {
      "inputs": [],
      "name": "CANCELLER_ROLE",
      "outputs": [
        {
          "internalType": "bytes32",
          "name": "",
          "type": "bytes32"
        }
      ],
      "stateMutability": "view",
      "type": "function"
    },
    {
      "inputs": [],
      "name": "DEFAULT_ADMIN_ROLE",
      "outputs": [
        {
          "internalType": "bytes32",
          "name": "",
          "type": "bytes32"
        }
      ],
      "stateMutability": "view",
      "type": "function"
    },
    {
      "inputs": [],
      "name": "EXECUTOR_ROLE",
      "outputs": [
        {
          "internalType": "bytes32",
          "name": "",
          "type": "bytes32"
        }
      ],
      "stateMutability": "view",
      "type": "function"
    },
    {
      "inputs": [],
      "name": "PROPOSER_ROLE",
      "outputs": [
        {
          "internalType": "bytes32",
          "name": "",
          "type": "bytes32"
        }
      ],
      "stateMutability": "view",
      "type": "function"
    },
    {
      "inputs": [],
      "name": "TIMELOCK_ADMIN_ROLE",
      "outputs": [
        {
          "internalType": "bytes32",
          "name": "",
          "type": "bytes32"
        }
      ],
      "stateMutability": "view",
      "type": "function"
    },
    {
      "inputs": [
        {
          "internalType": "bytes32",
          "name": "id",
          "type": "bytes32"
        }
      ],
      "name": "cancel",
      "outputs": [],
      "stateMutability": "nonpayable",
      "type": "function"
    },
    {
      "inputs": [
        {
          "internalType": "address",
          "name": "target",
          "type": "address"
        },
        {
          "internalType": "uint256",
          "name": "value",
          "type": "uint256"
        },
        {
          "internalType": "bytes",
          "name": "payload",
          "type": "bytes"
        },
        {
          "internalType": "bytes32",
          "name": "predecessor",
          "type": "bytes32"
        },
        {
          "internalType": "bytes32",
          "name": "salt",
          "type": "bytes32"
        }
      ],
      "name": "execute",
      "outputs": [],
      "stateMutability": "payable",
      "type": "function"
    },
    {
      "inputs": [
        {
          "internalType": "address[]",
          "name": "targets",
          "type": "address[]"
        },
        {
          "internalType": "uint256[]",
          "name": "values",
          "type": "uint256[]"
        },
        {
          "internalType": "bytes[]",
          "name": "payloads",
          "type": "bytes[]"
        },
        {
          "internalType": "bytes32",
          "name": "predecessor",
          "type": "bytes32"
        },
        {
          "internalType": "bytes32",
          "name": "salt",
          "type": "bytes32"
        }
      ],
      "name": "executeBatch",
      "outputs": [],
      "stateMutability": "payable",
      "type": "function"
    },
    {
      "inputs": [],
      "name": "getMinDelay",
      "outputs": [
        {
          "internalType": "uint256",
          "name": "duration",
          "type": "uint256"
        }
      ],
      "stateMutability": "view",
      "type": "function"
    },
    {
      "inputs": [
        {
          "internalType": "bytes32",
          "name": "role",
          "type": "bytes32"
        }
      ],
      "name": "getRoleAdmin",
      "outputs": [
        {
          "internalType": "bytes32",
          "name": "",
          "type": "bytes32"
        }
      ],
      "stateMutability": "view",
      "type": "function"
    },
    {
      "inputs": [
        {
          "internalType": "bytes32",
          "name": "id",
          "type": "bytes32"
        }
      ],
      "name": "getTimestamp",
      "outputs": [
        {
          "internalType": "uint256",
          "name": "timestamp",
          "type": "uint256"
        }
      ],
      "stateMutability": "view",
      "type": "function"
    },
    {
      "inputs": [
        {
          "internalType": "bytes32",
          "name": "role",
          "type": "bytes32"
        },
        {
          "internalType": "address",
          "name": "account",
          "type": "address"
        }
      ],
      "name": "grantRole",
      "outputs": [],
      "stateMutability": "nonpayable",
      "type": "function"
    },
    {
      "inputs": [
        {
          "internalType": "bytes32",
          "name": "role",
          "type": "bytes32"
        },
        {
          "internalType": "address",
          "name": "account",
          "type": "address"
        }
      ],
      "name": "hasRole",
      "outputs": [
        {
          "internalType": "bool",
          "name": "",
          "type": "bool"
        }
      ],
      "stateMutability": "view",
      "type": "function"
    },
    {
      "inputs": [
        {
          "internalType": "address",
          "name": "target",
          "type": "address"
        },
        {
          "internalType": "uint256",
          "name": "value",
          "type": "uint256"
        },
        {
          "internalType": "bytes",
          "name": "data",
          "type": "bytes"
        },
        {
          "internalType": "bytes32",
          "name": "predecessor",
          "type": "bytes32"
        },
        {
          "internalType": "bytes32",
          "name": "salt",
          "type": "bytes32"
        }
      ],
      "name": "hashOperation",
      "outputs": [
        {
          "internalType": "bytes32",
          "name": "hash",
          "type": "bytes32"
        }
      ],
      "stateMutability": "pure",
      "type": "function"
    },
    {
      "inputs": [
        {
          "internalType": "address[]",
          "name": "targets",
          "type": "address[]"
        },
        {
          "internalType": "uint256[]",
          "name": "values",
          "type": "uint256[]"
        },
        {
          "internalType": "bytes[]",
          "name": "payloads",
          "type": "bytes[]"
        },
        {
          "internalType": "bytes32",
          "name": "predecessor",
          "type": "bytes32"
        },
        {
          "internalType": "bytes32",
          "name": "salt",
          "type": "bytes32"
        }
      ],
      "name": "hashOperationBatch",
      "outputs": [
        {
          "internalType": "bytes32",
          "name": "hash",
          "type": "bytes32"
        }
      ],
      "stateMutability": "pure",
      "type": "function"
    },
    {
      "inputs": [
        {
          "internalType": "bytes32",
          "name": "id",
          "type": "bytes32"
        }
      ],
      "name": "isOperation",
      "outputs": [
        {
          "internalType": "bool",
          "name": "registered",
          "type": "bool"
        }
      ],
      "stateMutability": "view",
      "type": "function"
    },
    {
      "inputs": [
        {
          "internalType": "bytes32",
          "name": "id",
          "type": "bytes32"
        }
      ],
      "name": "isOperationDone",
      "outputs": [
        {
          "internalType": "bool",
          "name": "done",
          "type": "bool"
        }
      ],
      "stateMutability": "view",
      "type": "function"
    },
    {
      "inputs": [
        {
          "internalType": "bytes32",
          "name": "id",
          "type": "bytes32"
        }
      ],
      "name": "isOperationPending",
      "outputs": [
        {
          "internalType": "bool",
          "name": "pending",
          "type": "bool"
        }
      ],
      "stateMutability": "view",
      "type": "function"
    },
    {
      "inputs": [
        {
          "internalType": "bytes32",
          "name": "id",
          "type": "bytes32"
        }
      ],
      "name": "isOperationReady",
      "outputs": [
        {
          "internalType": "bool",
          "name": "ready",
          "type": "bool"
        }
      ],
      "stateMutability": "view",
      "type": "function"
    },
    {
      "inputs": [
        {
          "internalType": "address",
          "name": "",
          "type": "address"
        },
        {
          "internalType": "address",
          "name": "",
          "type": "address"
        },
        {
          "internalType": "uint256[]",
          "name": "",
          "type": "uint256[]"
        },
        {
          "internalType": "uint256[]",
          "name": "",
          "type": "uint256[]"
        },
        {
          "internalType": "bytes",
          "name": "",
          "type": "bytes"
        }
      ],
      "name": "onERC1155BatchReceived",
      "outputs": [
        {
          "internalType": "bytes4",
          "name": "",
          "type": "bytes4"
        }
      ],
      "stateMutability": "nonpayable",
      "type": "function"
    },
    {
      "inputs": [
        {
          "internalType": "address",
          "name": "",
          "type": "address"
        },
        {
          "internalType": "address",
          "name": "",
          "type": "address"
        },
        {
          "internalType": "uint256",
          "name": "",
          "type": "uint256"
        },
        {
          "internalType": "uint256",
          "name": "",
          "type": "uint256"
        },
        {
          "internalType": "bytes",
          "name": "",
          "type": "bytes"
        }
      ],
      "name": "onERC1155Received",
      "outputs": [
        {
          "internalType": "bytes4",
          "name": "",
          "type": "bytes4"
        }
      ],
      "stateMutability": "nonpayable",
      "type": "function"
    },
    {
      "inputs": [
        {
          "internalType": "address",
          "name": "",
          "type": "address"
        },
        {
          "internalType": "address",
          "name": "",
          "type": "address"
        },
        {
          "internalType": "uint256",
          "name": "",
          "type": "uint256"
        },
        {
          "internalType": "bytes",
          "name": "",
          "type": "bytes"
        }
      ],
      "name": "onERC721Received",
      "outputs": [
        {
          "internalType": "bytes4",
          "name": "",
          "type": "bytes4"
        }
      ],
      "stateMutability": "nonpayable",
      "type": "function"
    },
    {
      "inputs": [],
      "name": "owner",
      "outputs": [
        {
          "internalType": "address",
          "name": "",
          "type": "address"
        }
      ],
      "stateMutability": "view",
      "type": "function"
    },
    {
      "inputs": [],
      "name": "renounceOwnership",
      "outputs": [],
      "stateMutability": "nonpayable",
      "type": "function"
    },
    {
      "inputs": [
        {
          "internalType": "bytes32",
          "name": "role",
          "type": "bytes32"
        },
        {
          "internalType": "address",
          "name": "account",
          "type": "address"
        }
      ],
      "name": "renounceRole",
      "outputs": [],
      "stateMutability": "nonpayable",
      "type": "function"
    },
    {
      "inputs": [
        {
          "internalType": "bytes32",
          "name": "role",
          "type": "bytes32"
        },
        {
          "internalType": "address",
          "name": "account",
          "type": "address"
        }
      ],
      "name": "revokeRole",
      "outputs": [],
      "stateMutability": "nonpayable",
      "type": "function"
    },
    {
      "inputs": [
        {
          "internalType": "address",
          "name": "target",
          "type": "address"
        },
        {
          "internalType": "uint256",
          "name": "value",
          "type": "uint256"
        },
        {
          "internalType": "bytes",
          "name": "data",
          "type": "bytes"
        },
        {
          "internalType": "bytes32",
          "name": "predecessor",
          "type": "bytes32"
        },
        {
          "internalType": "bytes32",
          "name": "salt",
          "type": "bytes32"
        },
        {
          "internalType": "uint256",
          "name": "delay",
          "type": "uint256"
        }
      ],
      "name": "schedule",
      "outputs": [],
      "stateMutability": "nonpayable",
      "type": "function"
    },
    {
      "inputs": [
        {
          "internalType": "address[]",
          "name": "targets",
          "type": "address[]"
        },
        {
          "internalType": "uint256[]",
          "name": "values",
          "type": "uint256[]"
        },
        {
          "internalType": "bytes[]",
          "name": "payloads",
          "type": "bytes[]"
        },
        {
          "internalType": "bytes32",
          "name": "predecessor",
          "type": "bytes32"
        },
        {
          "internalType": "bytes32",
          "name": "salt",
          "type": "bytes32"
        },
        {
          "internalType": "uint256",
          "name": "delay",
          "type": "uint256"
        }
      ],
      "name": "scheduleBatch",
      "outputs": [],
      "stateMutability": "nonpayable",
      "type": "function"
    },
    {
      "inputs": [
        {
          "internalType": "bytes4",
          "name": "interfaceId",
          "type": "bytes4"
        }
      ],
      "name": "supportsInterface",
      "outputs": [
        {
          "internalType": "bool",
          "name": "",
          "type": "bool"
        }
      ],
      "stateMutability": "view",
      "type": "function"
    },
    {
      "inputs": [
        {
          "internalType": "address",
          "name": "newOwner",
          "type": "address"
        }
      ],
      "name": "transferOwnership",
      "outputs": [],
      "stateMutability": "nonpayable",
      "type": "function"
    },
    {
      "inputs": [
        {
          "internalType": "uint256",
          "name": "newDelay",
          "type": "uint256"
        }
      ],
      "name": "updateDelay",
      "outputs": [],
      "stateMutability": "nonpayable",
      "type": "function"
    },
    {
      "stateMutability": "payable",
      "type": "receive"
    }
  ],
  "transactionHash": "0xf66d0f4e850b532e1dee921bdd8fb72538625b8eae3d7af2aed8d0daa822f667",
  "args": [
    3600,
    [],
    [],
    "0xd6658b718B0AE012B62997b5eF9E4DA7Bd3Aa66E"
  ],
  "numDeployments": 3,
  "solcInputHash": "45279b5b31ad8251c52a7478d74462da",
  "bytecode": "0x60806040523480156200001157600080fd5b50604051620027053803806200270583398101604081905262000034916200052e565b838383836200005360008051602062002685833981519152806200028f565b6200007d600080516020620026a5833981519152600080516020620026858339815191526200028f565b620000a7600080516020620026c5833981519152600080516020620026858339815191526200028f565b620000d1600080516020620026e5833981519152600080516020620026858339815191526200028f565b620000ec6000805160206200268583398151915230620002da565b6001600160a01b038116156200015757620001176000805160206200268583398151915282620002da565b6200015760405180604001604052806011815260200170434845434b204558435554494f4e20257360781b81525082620002ea60201b62000e9f1760201c565b60005b8351811015620001dd57620001a1600080516020620026a58339815191528583815181106200018d576200018d620005b5565b6020026020010151620002da60201b60201c565b620001ca600080516020620026e58339815191528583815181106200018d576200018d620005b5565b620001d581620005cb565b90506200015a565b5060005b8251811015620002275762000214600080516020620026c58339815191528483815181106200018d576200018d620005b5565b6200021f81620005cb565b9050620001e1565b5060028490556040805160008152602081018690527f11c24f4ead16507c69ac467fbd5e4eed5fb5c699626d2cc6d66421df253886d5910160405180910390a150505050620002856200027f6200033760201b60201c565b6200033b565b505050506200065e565b600082815260208190526040808220600101805490849055905190918391839186917fbd79b86ffe0ab8e8776151514217cd7cacd52c909f66475c3af44e129f0b00ff9190a4505050565b620002e682826200038d565b5050565b620002e6828260405160240162000303929190620005f5565b60408051601f198184030181529190526020810180516001600160e01b0390811663319af33360e01b179091526200042d16565b3390565b600380546001600160a01b038381166001600160a01b0319831681179093556040519116919082907f8be0079c531659141344cd1fd0a4f28419497f9722a3daafe3b4186f6b6457e090600090a35050565b6000828152602081815260408083206001600160a01b038516845290915290205460ff16620002e6576000828152602081815260408083206001600160a01b03851684529091529020805460ff19166001179055620003e93390565b6001600160a01b0316816001600160a01b0316837f2f8788117e7eff1d82e926ec794901d17c78024a50270940304540a733656f0d60405160405180910390a45050565b80516a636f6e736f6c652e6c6f67602083016000808483855afa5050505050565b634e487b7160e01b600052604160045260246000fd5b80516001600160a01b03811681146200047c57600080fd5b919050565b600082601f8301126200049357600080fd5b815160206001600160401b0380831115620004b257620004b26200044e565b8260051b604051601f19603f83011681018181108482111715620004da57620004da6200044e565b604052938452858101830193838101925087851115620004f957600080fd5b83870191505b848210156200052357620005138262000464565b83529183019190830190620004ff565b979650505050505050565b600080600080608085870312156200054557600080fd5b845160208601519094506001600160401b03808211156200056557600080fd5b620005738883890162000481565b945060408701519150808211156200058a57600080fd5b50620005998782880162000481565b925050620005aa6060860162000464565b905092959194509250565b634e487b7160e01b600052603260045260246000fd5b6000600019821415620005ee57634e487b7160e01b600052601160045260246000fd5b5060010190565b604081526000835180604084015260005b8181101562000625576020818701810151606086840101520162000606565b8181111562000638576000606083860101525b506001600160a01b0393909316602083015250601f91909101601f191601606001919050565b612017806200066e6000396000f3fe6080604052600436106101dc5760003560e01c80638065657f11610102578063bc197c8111610095578063e38335e511610064578063e38335e514610600578063f23a6e6114610613578063f27a0c921461063f578063f2fde38b1461065457600080fd5b8063bc197c8114610567578063c4d252f514610593578063d45c4435146105b3578063d547741f146105e057600080fd5b806391d14854116100d157806391d14854146104de578063a217fddf146104fe578063b08e51c014610513578063b1c5f4271461054757600080fd5b80638065657f146104425780638da5cb5b146104625780638f2a0bb01461048a5780638f61f4f5146104aa57600080fd5b8063248a9ca31161017a57806336568abe1161014957806336568abe146103cd578063584b153e146103ed57806364d623531461040d578063715018a61461042d57600080fd5b8063248a9ca31461032c5780632ab0f5291461035c5780632f2ff15d1461038d57806331d50750146103ad57600080fd5b80630d3cf6fc116101b65780630d3cf6fc14610281578063134008d3146102b557806313bc9f20146102c8578063150b7a02146102e857600080fd5b806301d5062a146101e857806301ffc9a71461020a57806307bd02651461023f57600080fd5b366101e357005b600080fd5b3480156101f457600080fd5b506102086102033660046115da565b610674565b005b34801561021657600080fd5b5061022a61022536600461164e565b610709565b60405190151581526020015b60405180910390f35b34801561024b57600080fd5b506102737fd8aa0f3194971a2a116679f7c2090f6939c8d4e01a2a8d7e41d55e5351469e6381565b604051908152602001610236565b34801561028d57600080fd5b506102737f5f58e3a2316349923ce3780f8d587db2d72378aed66a8261c916544fa6846ca581565b6102086102c3366004611678565b610734565b3480156102d457600080fd5b5061022a6102e33660046116e3565b6107e9565b3480156102f457600080fd5b506103136103033660046117b1565b630a85bd0160e11b949350505050565b6040516001600160e01b03199091168152602001610236565b34801561033857600080fd5b506102736103473660046116e3565b60009081526020819052604090206001015490565b34801561036857600080fd5b5061022a6103773660046116e3565b6000908152600160208190526040909120541490565b34801561039957600080fd5b506102086103a8366004611818565b61080f565b3480156103b957600080fd5b5061022a6103c83660046116e3565b610839565b3480156103d957600080fd5b506102086103e8366004611818565b610852565b3480156103f957600080fd5b5061022a6104083660046116e3565b6108d5565b34801561041957600080fd5b506102086104283660046116e3565b6108eb565b34801561043957600080fd5b5061020861098f565b34801561044e57600080fd5b5061027361045d366004611678565b6109a3565b34801561046e57600080fd5b506003546040516001600160a01b039091168152602001610236565b34801561049657600080fd5b506102086104a5366004611888565b6109e2565b3480156104b657600080fd5b506102737fb09aa5aeb3702cfd50b6b62bc4532604938f21248a27a1d5ca736082b6819cc181565b3480156104ea57600080fd5b5061022a6104f9366004611818565b610b34565b34801561050a57600080fd5b50610273600081565b34801561051f57600080fd5b506102737ffd643c72710c63c0180259aba6b2d05451e3591a24e58b62239378085726f78381565b34801561055357600080fd5b50610273610562366004611939565b610b5d565b34801561057357600080fd5b50610313610582366004611a60565b63bc197c8160e01b95945050505050565b34801561059f57600080fd5b506102086105ae3660046116e3565b610ba2565b3480156105bf57600080fd5b506102736105ce3660046116e3565b60009081526001602052604090205490565b3480156105ec57600080fd5b506102086105fb366004611818565b610c77565b61020861060e366004611939565b610c9c565b34801561061f57600080fd5b5061031361062e366004611b09565b63f23a6e6160e01b95945050505050565b34801561064b57600080fd5b50600254610273565b34801561066057600080fd5b5061020861066f366004611b6d565b610e26565b7fb09aa5aeb3702cfd50b6b62bc4532604938f21248a27a1d5ca736082b6819cc161069e81610ee4565b60006106ae8989898989896109a3565b90506106ba8184610eee565b6000817f4cf4410cc57040e44862ef0f45f3dd5a5e02db8eb8add648d4b0e236f1d07dca8b8b8b8b8b8a6040516106f696959493929190611bb1565b60405180910390a3505050505050505050565b60006001600160e01b03198216630271189760e51b148061072e575061072e82610fdd565b92915050565b7fd8aa0f3194971a2a116679f7c2090f6939c8d4e01a2a8d7e41d55e5351469e63610760816000610b34565b61076e5761076e8133611012565b600061077e8888888888886109a3565b905061078a818561106b565b61079688888888611107565b6000817fc2617efa69bab66782fa219543714338489c4e9e178271560a91b82c3f612b588a8a8a8a6040516107ce9493929190611bee565b60405180910390a36107df816111da565b5050505050505050565b6000818152600160205260408120546001811180156108085750428111155b9392505050565b60008281526020819052604090206001015461082a81610ee4565b6108348383611213565b505050565b60008181526001602052604081205481905b1192915050565b6001600160a01b03811633146108c75760405162461bcd60e51b815260206004820152602f60248201527f416363657373436f6e74726f6c3a2063616e206f6e6c792072656e6f756e636560448201526e103937b632b9903337b91039b2b63360891b60648201526084015b60405180910390fd5b6108d18282611297565b5050565b600081815260016020819052604082205461084b565b33301461094e5760405162461bcd60e51b815260206004820152602b60248201527f54696d656c6f636b436f6e74726f6c6c65723a2063616c6c6572206d7573742060448201526a62652074696d656c6f636b60a81b60648201526084016108be565b60025460408051918252602082018390527f11c24f4ead16507c69ac467fbd5e4eed5fb5c699626d2cc6d66421df253886d5910160405180910390a1600255565b6109976112fc565b6109a16000611356565b565b60008686868686866040516020016109c096959493929190611bb1565b6040516020818303038152906040528051906020012090509695505050505050565b7fb09aa5aeb3702cfd50b6b62bc4532604938f21248a27a1d5ca736082b6819cc1610a0c81610ee4565b888714610a2b5760405162461bcd60e51b81526004016108be90611c20565b888514610a4a5760405162461bcd60e51b81526004016108be90611c20565b6000610a5c8b8b8b8b8b8b8b8b610b5d565b9050610a688184610eee565b60005b8a811015610b265780827f4cf4410cc57040e44862ef0f45f3dd5a5e02db8eb8add648d4b0e236f1d07dca8e8e85818110610aa857610aa8611c63565b9050602002016020810190610abd9190611b6d565b8d8d86818110610acf57610acf611c63565b905060200201358c8c87818110610ae857610ae8611c63565b9050602002810190610afa9190611c79565b8c8b604051610b0e96959493929190611bb1565b60405180910390a3610b1f81611cd5565b9050610a6b565b505050505050505050505050565b6000918252602082815260408084206001600160a01b0393909316845291905290205460ff1690565b60008888888888888888604051602001610b7e989796959493929190611d80565b60405160208183030381529060405280519060200120905098975050505050505050565b7ffd643c72710c63c0180259aba6b2d05451e3591a24e58b62239378085726f783610bcc81610ee4565b610bd5826108d5565b610c3b5760405162461bcd60e51b815260206004820152603160248201527f54696d656c6f636b436f6e74726f6c6c65723a206f7065726174696f6e2063616044820152701b9b9bdd0818994818d85b98d95b1b1959607a1b60648201526084016108be565b6000828152600160205260408082208290555183917fbaa1eb22f2a492ba1a5fea61b8df4d27c6c8b5f3971e63bb58fa14ff72eedb7091a25050565b600082815260208190526040902060010154610c9281610ee4565b6108348383611297565b7fd8aa0f3194971a2a116679f7c2090f6939c8d4e01a2a8d7e41d55e5351469e63610cc8816000610b34565b610cd657610cd68133611012565b878614610cf55760405162461bcd60e51b81526004016108be90611c20565b878414610d145760405162461bcd60e51b81526004016108be90611c20565b6000610d268a8a8a8a8a8a8a8a610b5d565b9050610d32818561106b565b60005b89811015610e105760008b8b83818110610d5157610d51611c63565b9050602002016020810190610d669190611b6d565b905060008a8a84818110610d7c57610d7c611c63565b9050602002013590503660008a8a86818110610d9a57610d9a611c63565b9050602002810190610dac9190611c79565b91509150610dbc84848484611107565b84867fc2617efa69bab66782fa219543714338489c4e9e178271560a91b82c3f612b5886868686604051610df39493929190611bee565b60405180910390a35050505080610e0990611cd5565b9050610d35565b50610e1a816111da565b50505050505050505050565b610e2e6112fc565b6001600160a01b038116610e935760405162461bcd60e51b815260206004820152602660248201527f4f776e61626c653a206e6577206f776e657220697320746865207a65726f206160448201526564647265737360d01b60648201526084016108be565b610e9c81611356565b50565b6108d18282604051602401610eb5929190611e87565b60408051601f198184030181529190526020810180516001600160e01b031663319af33360e01b1790526113a8565b610e9c8133611012565b610ef782610839565b15610f5c5760405162461bcd60e51b815260206004820152602f60248201527f54696d656c6f636b436f6e74726f6c6c65723a206f7065726174696f6e20616c60448201526e1c9958591e481cd8da19591d5b1959608a1b60648201526084016108be565b600254811015610fbd5760405162461bcd60e51b815260206004820152602660248201527f54696d656c6f636b436f6e74726f6c6c65723a20696e73756666696369656e746044820152652064656c617960d01b60648201526084016108be565b610fc78142611eb1565b6000928352600160205260409092209190915550565b60006001600160e01b03198216637965db0b60e01b148061072e57506301ffc9a760e01b6001600160e01b031983161461072e565b61101c8282610b34565b6108d157611029816113c9565b6110348360206113db565b604051602001611045929190611ec9565b60408051601f198184030181529082905262461bcd60e51b82526108be91600401611f3e565b611074826107e9565b6110905760405162461bcd60e51b81526004016108be90611f51565b8015806110ac5750600081815260016020819052604090912054145b6108d15760405162461bcd60e51b815260206004820152602660248201527f54696d656c6f636b436f6e74726f6c6c65723a206d697373696e6720646570656044820152656e64656e637960d01b60648201526084016108be565b6000846001600160a01b0316848484604051611124929190611f9b565b60006040518083038185875af1925050503d8060008114611161576040519150601f19603f3d011682016040523d82523d6000602084013e611166565b606091505b50509050806111d35760405162461bcd60e51b815260206004820152603360248201527f54696d656c6f636b436f6e74726f6c6c65723a20756e6465726c79696e6720746044820152721c985b9cd858dd1a5bdb881c995d995c9d1959606a1b60648201526084016108be565b5050505050565b6111e3816107e9565b6111ff5760405162461bcd60e51b81526004016108be90611f51565b600090815260016020819052604090912055565b61121d8282610b34565b6108d1576000828152602081815260408083206001600160a01b03851684529091529020805460ff191660011790556112533390565b6001600160a01b0316816001600160a01b0316837f2f8788117e7eff1d82e926ec794901d17c78024a50270940304540a733656f0d60405160405180910390a45050565b6112a18282610b34565b156108d1576000828152602081815260408083206001600160a01b0385168085529252808320805460ff1916905551339285917ff6391f5c32d9c69d2a47ea670b442974b53935d1edc7fd64eb21e047a839171b9190a45050565b6003546001600160a01b031633146109a15760405162461bcd60e51b815260206004820181905260248201527f4f776e61626c653a2063616c6c6572206973206e6f7420746865206f776e657260448201526064016108be565b600380546001600160a01b038381166001600160a01b0319831681179093556040519116919082907f8be0079c531659141344cd1fd0a4f28419497f9722a3daafe3b4186f6b6457e090600090a35050565b80516a636f6e736f6c652e6c6f67602083016000808483855afa5050505050565b606061072e6001600160a01b03831660145b606060006113ea836002611fab565b6113f5906002611eb1565b6001600160401b0381111561140c5761140c6116fc565b6040519080825280601f01601f191660200182016040528015611436576020820181803683370190505b509050600360fc1b8160008151811061145157611451611c63565b60200101906001600160f81b031916908160001a905350600f60fb1b8160018151811061148057611480611c63565b60200101906001600160f81b031916908160001a90535060006114a4846002611fab565b6114af906001611eb1565b90505b6001811115611527576f181899199a1a9b1b9c1cb0b131b232b360811b85600f16601081106114e3576114e3611c63565b1a60f81b8282815181106114f9576114f9611c63565b60200101906001600160f81b031916908160001a90535060049490941c9361152081611fca565b90506114b2565b5083156108085760405162461bcd60e51b815260206004820181905260248201527f537472696e67733a20686578206c656e67746820696e73756666696369656e7460448201526064016108be565b80356001600160a01b038116811461158d57600080fd5b919050565b60008083601f8401126115a457600080fd5b5081356001600160401b038111156115bb57600080fd5b6020830191508360208285010111156115d357600080fd5b9250929050565b600080600080600080600060c0888a0312156115f557600080fd5b6115fe88611576565b96506020880135955060408801356001600160401b0381111561162057600080fd5b61162c8a828b01611592565b989b979a50986060810135976080820135975060a09091013595509350505050565b60006020828403121561166057600080fd5b81356001600160e01b03198116811461080857600080fd5b60008060008060008060a0878903121561169157600080fd5b61169a87611576565b95506020870135945060408701356001600160401b038111156116bc57600080fd5b6116c889828a01611592565b979a9699509760608101359660809091013595509350505050565b6000602082840312156116f557600080fd5b5035919050565b634e487b7160e01b600052604160045260246000fd5b604051601f8201601f191681016001600160401b038111828210171561173a5761173a6116fc565b604052919050565b600082601f83011261175357600080fd5b81356001600160401b0381111561176c5761176c6116fc565b61177f601f8201601f1916602001611712565b81815284602083860101111561179457600080fd5b816020850160208301376000918101602001919091529392505050565b600080600080608085870312156117c757600080fd5b6117d085611576565b93506117de60208601611576565b92506040850135915060608501356001600160401b0381111561180057600080fd5b61180c87828801611742565b91505092959194509250565b6000806040838503121561182b57600080fd5b8235915061183b60208401611576565b90509250929050565b60008083601f84011261185657600080fd5b5081356001600160401b0381111561186d57600080fd5b6020830191508360208260051b85010111156115d357600080fd5b600080600080600080600080600060c08a8c0312156118a657600080fd5b89356001600160401b03808211156118bd57600080fd5b6118c98d838e01611844565b909b50995060208c01359150808211156118e257600080fd5b6118ee8d838e01611844565b909950975060408c013591508082111561190757600080fd5b506119148c828d01611844565b9a9d999c50979a969997986060880135976080810135975060a0013595509350505050565b60008060008060008060008060a0898b03121561195557600080fd5b88356001600160401b038082111561196c57600080fd5b6119788c838d01611844565b909a50985060208b013591508082111561199157600080fd5b61199d8c838d01611844565b909850965060408b01359150808211156119b657600080fd5b506119c38b828c01611844565b999c989b509699959896976060870135966080013595509350505050565b600082601f8301126119f257600080fd5b813560206001600160401b03821115611a0d57611a0d6116fc565b8160051b611a1c828201611712565b9283528481018201928281019087851115611a3657600080fd5b83870192505b84831015611a5557823582529183019190830190611a3c565b979650505050505050565b600080600080600060a08688031215611a7857600080fd5b611a8186611576565b9450611a8f60208701611576565b935060408601356001600160401b0380821115611aab57600080fd5b611ab789838a016119e1565b94506060880135915080821115611acd57600080fd5b611ad989838a016119e1565b93506080880135915080821115611aef57600080fd5b50611afc88828901611742565b9150509295509295909350565b600080600080600060a08688031215611b2157600080fd5b611b2a86611576565b9450611b3860208701611576565b9350604086013592506060860135915060808601356001600160401b03811115611b6157600080fd5b611afc88828901611742565b600060208284031215611b7f57600080fd5b61080882611576565b81835281816020850137506000828201602090810191909152601f909101601f19169091010190565b60018060a01b038716815285602082015260a060408201526000611bd960a083018688611b88565b60608301949094525060800152949350505050565b60018060a01b0385168152836020820152606060408201526000611c16606083018486611b88565b9695505050505050565b60208082526023908201527f54696d656c6f636b436f6e74726f6c6c65723a206c656e677468206d69736d616040820152620e8c6d60eb1b606082015260800190565b634e487b7160e01b600052603260045260246000fd5b6000808335601e19843603018112611c9057600080fd5b8301803591506001600160401b03821115611caa57600080fd5b6020019150368190038213156115d357600080fd5b634e487b7160e01b600052601160045260246000fd5b6000600019821415611ce957611ce9611cbf565b5060010190565b81835260006020808501808196508560051b810191508460005b87811015611d735782840389528135601e19883603018112611d2b57600080fd5b870180356001600160401b03811115611d4357600080fd5b803603891315611d5257600080fd5b611d5f8682898501611b88565b9a87019a9550505090840190600101611d0a565b5091979650505050505050565b60a0808252810188905260008960c08301825b8b811015611dc1576001600160a01b03611dac84611576565b16825260209283019290910190600101611d93565b5083810360208501528881526001600160fb1b03891115611de157600080fd5b8860051b9150818a602083013781810191505060208101600081526020848303016040850152611e1281888a611cf0565b6060850196909652505050608001529695505050505050565b60005b83811015611e46578181015183820152602001611e2e565b83811115611e55576000848401525b50505050565b60008151808452611e73816020860160208601611e2b565b601f01601f19169290920160200192915050565b604081526000611e9a6040830185611e5b565b905060018060a01b03831660208301529392505050565b60008219821115611ec457611ec4611cbf565b500190565b7f416363657373436f6e74726f6c3a206163636f756e7420000000000000000000815260008351611f01816017850160208801611e2b565b7001034b99036b4b9b9b4b733903937b6329607d1b6017918401918201528351611f32816028840160208801611e2b565b01602801949350505050565b6020815260006108086020830184611e5b565b6020808252602a908201527f54696d656c6f636b436f6e74726f6c6c65723a206f7065726174696f6e206973604082015269206e6f7420726561647960b01b606082015260800190565b8183823760009101908152919050565b6000816000190483118215151615611fc557611fc5611cbf565b500290565b600081611fd957611fd9611cbf565b50600019019056fea26469706673582212201f71b01dd06c956ce3b1243d0076e21514a55b7099bdd94c4778a76aa09581e764736f6c634300080900335f58e3a2316349923ce3780f8d587db2d72378aed66a8261c916544fa6846ca5b09aa5aeb3702cfd50b6b62bc4532604938f21248a27a1d5ca736082b6819cc1d8aa0f3194971a2a116679f7c2090f6939c8d4e01a2a8d7e41d55e5351469e63fd643c72710c63c0180259aba6b2d05451e3591a24e58b62239378085726f783",
  "devdoc": {
    "kind": "dev",
    "methods": {
      "cancel(bytes32)": {
        "details": "Cancel an operation. Requirements: - the caller must have the 'canceller' role."
      },
      "execute(address,uint256,bytes,bytes32,bytes32)": {
        "details": "Execute an (ready) operation containing a single transaction. Emits a {CallExecuted} event. Requirements: - the caller must have the 'executor' role."
      },
      "executeBatch(address[],uint256[],bytes[],bytes32,bytes32)": {
        "details": "Execute an (ready) operation containing a batch of transactions. Emits one {CallExecuted} event per transaction in the batch. Requirements: - the caller must have the 'executor' role."
      },
      "getMinDelay()": {
        "details": "Returns the minimum delay for an operation to become valid. This value can be changed by executing an operation that calls `updateDelay`."
      },
      "getRoleAdmin(bytes32)": {
        "details": "Returns the admin role that controls `role`. See {grantRole} and {revokeRole}. To change a role's admin, use {_setRoleAdmin}."
      },
      "getTimestamp(bytes32)": {
        "details": "Returns the timestamp at with an operation becomes ready (0 for unset operations, 1 for done operations)."
      },
      "grantRole(bytes32,address)": {
        "details": "Grants `role` to `account`. If `account` had not been already granted `role`, emits a {RoleGranted} event. Requirements: - the caller must have ``role``'s admin role. May emit a {RoleGranted} event."
      },
      "hasRole(bytes32,address)": {
        "details": "Returns `true` if `account` has been granted `role`."
      },
      "hashOperation(address,uint256,bytes,bytes32,bytes32)": {
        "details": "Returns the identifier of an operation containing a single transaction."
      },
      "hashOperationBatch(address[],uint256[],bytes[],bytes32,bytes32)": {
        "details": "Returns the identifier of an operation containing a batch of transactions."
      },
      "isOperation(bytes32)": {
        "details": "Returns whether an id correspond to a registered operation. This includes both Pending, Ready and Done operations."
      },
      "isOperationDone(bytes32)": {
        "details": "Returns whether an operation is done or not."
      },
      "isOperationPending(bytes32)": {
        "details": "Returns whether an operation is pending or not."
      },
      "isOperationReady(bytes32)": {
        "details": "Returns whether an operation is ready or not."
      },
      "onERC1155BatchReceived(address,address,uint256[],uint256[],bytes)": {
        "details": "See {IERC1155Receiver-onERC1155BatchReceived}."
      },
      "onERC1155Received(address,address,uint256,uint256,bytes)": {
        "details": "See {IERC1155Receiver-onERC1155Received}."
      },
      "onERC721Received(address,address,uint256,bytes)": {
        "details": "See {IERC721Receiver-onERC721Received}."
      },
      "owner()": {
        "details": "Returns the address of the current owner."
      },
      "renounceOwnership()": {
        "details": "Leaves the contract without owner. It will not be possible to call `onlyOwner` functions anymore. Can only be called by the current owner. NOTE: Renouncing ownership will leave the contract without an owner, thereby removing any functionality that is only available to the owner."
      },
      "renounceRole(bytes32,address)": {
        "details": "Revokes `role` from the calling account. Roles are often managed via {grantRole} and {revokeRole}: this function's purpose is to provide a mechanism for accounts to lose their privileges if they are compromised (such as when a trusted device is misplaced). If the calling account had been revoked `role`, emits a {RoleRevoked} event. Requirements: - the caller must be `account`. May emit a {RoleRevoked} event."
      },
      "revokeRole(bytes32,address)": {
        "details": "Revokes `role` from `account`. If `account` had been granted `role`, emits a {RoleRevoked} event. Requirements: - the caller must have ``role``'s admin role. May emit a {RoleRevoked} event."
      },
      "schedule(address,uint256,bytes,bytes32,bytes32,uint256)": {
        "details": "Schedule an operation containing a single transaction. Emits a {CallScheduled} event. Requirements: - the caller must have the 'proposer' role."
      },
      "scheduleBatch(address[],uint256[],bytes[],bytes32,bytes32,uint256)": {
        "details": "Schedule an operation containing a batch of transactions. Emits one {CallScheduled} event per transaction in the batch. Requirements: - the caller must have the 'proposer' role."
      },
      "supportsInterface(bytes4)": {
        "details": "See {IERC165-supportsInterface}."
      },
      "transferOwnership(address)": {
        "details": "Transfers ownership of the contract to a new account (`newOwner`). Can only be called by the current owner."
      },
      "updateDelay(uint256)": {
        "details": "Changes the minimum timelock duration for future operations. Emits a {MinDelayChange} event. Requirements: - the caller must be the timelock itself. This can only be achieved by scheduling and later executing an operation where the timelock is the target and the data is the ABI-encoded call to this function."
      }
    },
    "version": 1
  },
  "userdoc": {
    "kind": "user",
    "methods": {
      "constructor": {
        "notice": "IMPORTANT: The optional admin can aid with initial configuration of roles after deployment without being subject to delay, but this role should be subsequently renounced in favor of administration through timelocked proposals. Previous versions of this contract would assign this admin to the deployer automatically and should be renounced as well."
      }
    },
    "version": 1
  },
  "storageLayout": {
    "storage": [
      {
        "astId": 82,
        "contract": "contracts/governance_standard/LockController.sol:LockController",
        "label": "_roles",
        "offset": 0,
        "slot": "0",
        "type": "t_mapping(t_bytes32,t_struct(RoleData)77_storage)"
      },
      {
        "astId": 2208,
        "contract": "contracts/governance_standard/LockController.sol:LockController",
        "label": "_timestamps",
        "offset": 0,
        "slot": "1",
        "type": "t_mapping(t_bytes32,t_uint256)"
      },
      {
        "astId": 2210,
        "contract": "contracts/governance_standard/LockController.sol:LockController",
        "label": "_minDelay",
        "offset": 0,
        "slot": "2",
        "type": "t_uint256"
      },
      {
        "astId": 454,
        "contract": "contracts/governance_standard/LockController.sol:LockController",
        "label": "_owner",
        "offset": 0,
        "slot": "3",
        "type": "t_address"
      }
    ],
    "types": {
      "t_address": {
        "encoding": "inplace",
        "label": "address",
        "numberOfBytes": "20"
      },
      "t_bool": {
        "encoding": "inplace",
        "label": "bool",
        "numberOfBytes": "1"
      },
      "t_bytes32": {
        "encoding": "inplace",
        "label": "bytes32",
        "numberOfBytes": "32"
      },
      "t_mapping(t_address,t_bool)": {
        "encoding": "mapping",
        "key": "t_address",
        "label": "mapping(address => bool)",
        "numberOfBytes": "32",
        "value": "t_bool"
      },
      "t_mapping(t_bytes32,t_struct(RoleData)77_storage)": {
        "encoding": "mapping",
        "key": "t_bytes32",
        "label": "mapping(bytes32 => struct AccessControl.RoleData)",
        "numberOfBytes": "32",
        "value": "t_struct(RoleData)77_storage"
      },
      "t_mapping(t_bytes32,t_uint256)": {
        "encoding": "mapping",
        "key": "t_bytes32",
        "label": "mapping(bytes32 => uint256)",
        "numberOfBytes": "32",
        "value": "t_uint256"
      },
      "t_struct(RoleData)77_storage": {
        "encoding": "inplace",
        "label": "struct AccessControl.RoleData",
        "members": [
          {
            "astId": 74,
            "contract": "contracts/governance_standard/LockController.sol:LockController",
            "label": "members",
            "offset": 0,
            "slot": "0",
            "type": "t_mapping(t_address,t_bool)"
          },
          {
            "astId": 76,
            "contract": "contracts/governance_standard/LockController.sol:LockController",
            "label": "adminRole",
            "offset": 0,
            "slot": "1",
            "type": "t_bytes32"
          }
        ],
        "numberOfBytes": "64"
      },
      "t_uint256": {
        "encoding": "inplace",
        "label": "uint256",
        "numberOfBytes": "32"
      }
    }
  }
}