{
  "address": "0x16DD24E700f946d701065607071702A04479ea5D",
  "abi": [
    {
      "inputs": [
        {
          "internalType": "address",
          "name": "_assetNft",
          "type": "address"
        }
      ],
      "stateMutability": "nonpayable",
      "type": "constructor"
    },
    {
      "anonymous": false,
      "inputs": [
        {
          "indexed": false,
          "internalType": "address",
          "name": "sender",
          "type": "address"
        },
        {
          "indexed": false,
          "internalType": "uint256",
          "name": "amount",
          "type": "uint256"
        }
      ],
      "name": "AmountReceived",
      "type": "event"
    },
    {
      "anonymous": false,
      "inputs": [
        {
          "indexed": true,
          "internalType": "address",
          "name": "to",
          "type": "address"
        },
        {
          "indexed": true,
          "internalType": "uint256",
          "name": "amount",
          "type": "uint256"
        }
      ],
      "name": "AmountSent",
      "type": "event"
    },
    {
      "anonymous": false,
      "inputs": [
        {
          "indexed": false,
          "internalType": "uint256",
          "name": "auctionId",
          "type": "uint256"
        },
        {
          "indexed": false,
          "internalType": "uint256",
          "name": "tokenId",
          "type": "uint256"
        },
        {
          "indexed": false,
          "internalType": "address",
          "name": "seller",
          "type": "address"
        }
      ],
      "name": "AuctionCancelled",
      "type": "event"
    },
    {
      "anonymous": false,
      "inputs": [
        {
          "indexed": false,
          "internalType": "uint256",
          "name": "auctionId",
          "type": "uint256"
        },
        {
          "indexed": false,
          "internalType": "uint256",
          "name": "tokenId",
          "type": "uint256"
        },
        {
          "indexed": false,
          "internalType": "address",
          "name": "seller",
          "type": "address"
        },
        {
          "indexed": false,
          "internalType": "uint256",
          "name": "startTime",
          "type": "uint256"
        },
        {
          "indexed": false,
          "internalType": "uint256",
          "name": "endTime",
          "type": "uint256"
        },
        {
          "indexed": false,
          "internalType": "uint256",
          "name": "reservePrice",
          "type": "uint256"
        },
        {
          "indexed": false,
          "internalType": "bool",
          "name": "started",
          "type": "bool"
        }
      ],
      "name": "AuctionCreated",
      "type": "event"
    },
    {
      "anonymous": false,
      "inputs": [
        {
          "indexed": false,
          "internalType": "uint256",
          "name": "auctionId",
          "type": "uint256"
        },
        {
          "indexed": false,
          "internalType": "address",
          "name": "winner",
          "type": "address"
        },
        {
          "indexed": false,
          "internalType": "uint256",
          "name": "settledPrice",
          "type": "uint256"
        }
      ],
      "name": "AuctionEnded",
      "type": "event"
    },
    {
      "anonymous": false,
      "inputs": [
        {
          "indexed": true,
          "internalType": "address",
          "name": "previousOwner",
          "type": "address"
        },
        {
          "indexed": true,
          "internalType": "address",
          "name": "newOwner",
          "type": "address"
        }
      ],
      "name": "OwnershipTransferred",
      "type": "event"
    },
    {
      "anonymous": false,
      "inputs": [
        {
          "indexed": false,
          "internalType": "uint256",
          "name": "bidAmount",
          "type": "uint256"
        },
        {
          "indexed": false,
          "internalType": "address",
          "name": "bidder",
          "type": "address"
        },
        {
          "indexed": false,
          "internalType": "uint256",
          "name": "bidTime",
          "type": "uint256"
        },
        {
          "indexed": false,
          "internalType": "uint256",
          "name": "auctionId",
          "type": "uint256"
        },
        {
          "indexed": false,
          "internalType": "uint256",
          "name": "tokenId",
          "type": "uint256"
        }
      ],
      "name": "PlacedBid",
      "type": "event"
    },
    {
      "stateMutability": "payable",
      "type": "fallback"
    },
    {
      "inputs": [
        {
          "internalType": "uint256",
          "name": "",
          "type": "uint256"
        }
      ],
      "name": "auctions",
      "outputs": [
        {
          "internalType": "uint256",
          "name": "tokenId",
          "type": "uint256"
        },
        {
          "internalType": "address",
          "name": "seller",
          "type": "address"
        },
        {
          "internalType": "uint256",
          "name": "startTime",
          "type": "uint256"
        },
        {
          "internalType": "uint256",
          "name": "endTime",
          "type": "uint256"
        },
        {
          "internalType": "uint256",
          "name": "reservePrice",
          "type": "uint256"
        },
        {
          "internalType": "bool",
          "name": "started",
          "type": "bool"
        }
      ],
      "stateMutability": "view",
      "type": "function"
    },
    {
      "inputs": [
        {
          "internalType": "uint256",
          "name": "_auctionId",
          "type": "uint256"
        }
      ],
      "name": "cancelAuction",
      "outputs": [],
      "stateMutability": "nonpayable",
      "type": "function"
    },
    {
      "inputs": [
        {
          "internalType": "uint256",
          "name": "_auctionId",
          "type": "uint256"
        }
      ],
      "name": "fetchAuction",
      "outputs": [
        {
          "internalType": "uint256",
          "name": "tokenId",
          "type": "uint256"
        },
        {
          "internalType": "address",
          "name": "seller",
          "type": "address"
        },
        {
          "internalType": "uint256",
          "name": "startTime",
          "type": "uint256"
        }
      ],
      "stateMutability": "view",
      "type": "function"
    },
    {
      "inputs": [
        {
          "internalType": "uint256",
          "name": "",
          "type": "uint256"
        }
      ],
      "name": "highestBids",
      "outputs": [
        {
          "internalType": "address",
          "name": "bidder",
          "type": "address"
        },
        {
          "internalType": "uint256",
          "name": "bid",
          "type": "uint256"
        },
        {
          "internalType": "uint256",
          "name": "bidTime",
          "type": "uint256"
        }
      ],
      "stateMutability": "view",
      "type": "function"
    },
    {
      "inputs": [],
      "name": "nextAuctionId",
      "outputs": [
        {
          "internalType": "uint256",
          "name": "",
          "type": "uint256"
        }
      ],
      "stateMutability": "view",
      "type": "function"
    },
    {
      "inputs": [],
      "name": "owner",
      "outputs": [
        {
          "internalType": "address",
          "name": "",
          "type": "address"
        }
      ],
      "stateMutability": "view",
      "type": "function"
    },
    {
      "inputs": [
        {
          "internalType": "uint256",
          "name": "_auctionId",
          "type": "uint256"
        }
      ],
      "name": "placeBid",
      "outputs": [],
      "stateMutability": "payable",
      "type": "function"
    },
    {
      "inputs": [],
      "name": "renounceOwnership",
      "outputs": [],
      "stateMutability": "nonpayable",
      "type": "function"
    },
    {
      "inputs": [
        {
          "internalType": "uint256",
          "name": "_auctionId",
          "type": "uint256"
        }
      ],
      "name": "resultAuction",
      "outputs": [],
      "stateMutability": "payable",
      "type": "function"
    },
    {
      "inputs": [
        {
          "internalType": "address payable",
          "name": "_to",
          "type": "address"
        },
        {
          "internalType": "uint256",
          "name": "_amount",
          "type": "uint256"
        }
      ],
      "name": "sendViaCall",
      "outputs": [],
      "stateMutability": "payable",
      "type": "function"
    },
    {
      "inputs": [
        {
          "internalType": "uint256",
          "name": "tokenId",
          "type": "uint256"
        },
        {
          "internalType": "uint256",
          "name": "startTime",
          "type": "uint256"
        },
        {
          "internalType": "uint256",
          "name": "endTime",
          "type": "uint256"
        },
        {
          "internalType": "uint256",
          "name": "reservePrice",
          "type": "uint256"
        }
      ],
      "name": "startAuction",
      "outputs": [],
      "stateMutability": "nonpayable",
      "type": "function"
    },
    {
      "inputs": [
        {
          "internalType": "address",
          "name": "newOwner",
          "type": "address"
        }
      ],
      "name": "transferOwnership",
      "outputs": [],
      "stateMutability": "nonpayable",
      "type": "function"
    },
    {
      "stateMutability": "payable",
      "type": "receive"
    }
  ],
  "transactionHash": "0xaccc5d807a9c05d76ccd054ce576ce2e6ab258833df35472023ba32c28c2cab8",
  "args": [
    "0x509815B83b091d86f76919F7f5891a2E48545798"
  ],
  "numDeployments": 2,
  "solcInputHash": "67c14e48e2ddc2ba16522d4d906a1924",
  "bytecode": "0x6080604052670de0b6b3a7640000600455600060065534801561002157600080fd5b50604051610e99380380610e99833981016040819052610040916100c5565b600160005561004e33610073565b600380546001600160a01b0319166001600160a01b03929092169190911790556100f5565b600180546001600160a01b038381166001600160a01b0319831681179093556040519116919082907f8be0079c531659141344cd1fd0a4f28419497f9722a3daafe3b4186f6b6457e090600090a35050565b6000602082840312156100d757600080fd5b81516001600160a01b03811681146100ee57600080fd5b9392505050565b610d95806101046000396000f3fe6080604052600436106100a55760003560e01c806396b5a7551161006157806396b5a755146102af5780639979ef45146102cf578063af3718b8146102e2578063e4dc4f55146102f5578063f2fde38b14610308578063fc5284821461032857005b8063111cb258146100e5578063571a26a014610155578063715018a6146101e95780637195e124146101fe5780638d2c4488146102675780638da5cb5b1461028757005b366100e357604080513381523460208201527e36624afd4ac14e2ebe9b68a6ec0c6e4f6bf5bde2999a61e1fec085ca86697d910160405180910390a1005b005b3480156100f157600080fd5b5061012b610100366004610c90565b6007602052600090815260409020805460018201546002909201546001600160a01b03909116919083565b604080516001600160a01b0390941684526020840192909252908201526060015b60405180910390f35b34801561016157600080fd5b506101b2610170366004610c90565b600560208190526000918252604090912080546001820154600283015460038401546004850154949095015492946001600160a01b0390921693909260ff1686565b604080519687526001600160a01b0390951660208701529385019290925260608401526080830152151560a082015260c00161014c565b3480156101f557600080fd5b506100e361034c565b34801561020a57600080fd5b50610244610219366004610c90565b60009081526005602052604090208054600182015460029092015490926001600160a01b0390921691565b604080519384526001600160a01b0390921660208401529082015260600161014c565b34801561027357600080fd5b506100e3610282366004610ca9565b610360565b34801561029357600080fd5b506001546040516001600160a01b03909116815260200161014c565b3480156102bb57600080fd5b506100e36102ca366004610c90565b61047e565b6100e36102dd366004610c90565b610541565b6100e36102f0366004610c90565b610818565b6100e3610303366004610cf0565b610a2c565b34801561031457600080fd5b506100e3610323366004610d1c565b610b01565b34801561033457600080fd5b5061033e60065481565b60405190815260200161014c565b610354610b77565b61035e6000610bd1565b565b610368610c23565b600061037360025490565b9050610383600280546001019055565b6040805160c080820183528782523360208084018281528486018a815260608087018b815260808089018c8152600160a0808c0182815260008f81526005808c52908f90209d518e5598518d840180546001600160a01b0319166001600160a01b03909216919091179055965160028d0155935160038c0155905160048b0155935198909401805460ff19169815159890981790975587518981529384018d9052968301939093529481018990529384018790529183018590528201527f5e47aa5a47e3ed1d60757fb053093a32c0104679e0405f3f5488fac3977274499060e00160405180910390a1506104786001600055565b50505050565b6000818152600560205260409020600101546001600160a01b031633146104e55760405162461bcd60e51b81526020600482015260166024820152752cb7ba9030b932903737ba103a34329039b2b63632b960511b60448201526064015b60405180910390fd5b600081815260056020818152604092839020918201805460ff191690559054825184815291820152338183015290517fc7431c6b1d914f39e2fd63a9d1e3b7df6a8fc2332fce7a9a050a97398fd837ff9181900360600190a150565b610549610c23565b600081815260056020526040902060030154421061059d5760405162461bcd60e51b8152602060048201526011602482015270105d58dd1a5bdb881a185cc8195b991959607a1b60448201526064016104dc565b6000818152600560205260409020600101546001600160a01b031633141561062d5760405162461bcd60e51b815260206004820152603e60248201527f796f752073686f756c6420617265206e6f7420616c6c6f77656420746f20706c60448201527f616365206120626964206f6e20796f7572206f776e2061756374696f6e2e000060648201526084016104dc565b336106855760405162461bcd60e51b815260206004820152602260248201527f7468697320697320746865206164647265737320307830302e2e206164647265604482015261737360f01b60648201526084016104dc565b6000818152600760209081526040808320815160608101835281546001600160a01b031681526001820154938101849052600290910154918101919091526004549092916106d291610c7d565b9050816020015160001415610702576004546000848152600760205260409020600101546106ff91610c7d565b90505b803410156107525760405162461bcd60e51b815260206004820152601d60248201527f486173206e6f742065786365656465642074686520626573742062696400000060448201526064016104dc565b600083815260076020818152604080842080548251606080820185523380835234838801818152428589018181528f8d529a8a5294516001600160a01b03166001600160a01b031990961695909517865593516001860155965160029094019390935560058552958390205483519182529381019490945283820194909452928201869052608082015290517faaae5b9f3ca4ff1dfb01eb2c65a8dff64949a5c6226c73dd188dbcb2a7afa58c9160a0908290030190a150506108156001600055565b50565b6000818152600560208190526040909120015460ff1661087a5760405162461bcd60e51b815260206004820152601f60248201527f5468652061756374696f6e20686173206e6f742073746172746564207965740060448201526064016104dc565b60008181526005602052604090206003015442106108da5760405162461bcd60e51b815260206004820152601d60248201527f5468652061756374696f6e20686173206e6f7420656e6465642079657400000060448201526064016104dc565b6000818152600760209081526040808320815160608101835281546001600160a01b039081168252600180840154838701908152600290940154838601528787526005909552929094209092015491516109379290911690610a2c565b60035460008381526005602052604090819020600181015484519154925163d1660f9960e01b81526001600160a01b0391821660048201529181166024830152604482019290925291169063d1660f9990606401600060405180830381600087803b1580156109a557600080fd5b505af11580156109b9573d6000803e3d6000fd5b505050600083815260056020818152604092839020909101805460ff1916905583518482015183518781526001600160a01b0390921692820192909252918201527fd2aa34a4fdbbc6dff6a3e56f46e0f3ae2a31d7785ff3487aa5c95c642acea501915060600160405180910390a15050565b6000826001600160a01b03168260405160006040518083038185875af1925050503d8060008114610a79576040519150601f19603f3d011682016040523d82523d6000602084013e610a7e565b606091505b5050905080610ac65760405162461bcd60e51b81526020600482015260146024820152734661696c656420746f2073656e64204d6174696360601b60448201526064016104dc565b60405182906001600160a01b038516907f0dcd772c3ac944a96aa868054360fad56f136beb3f903c6c714a548135ee1b4390600090a3505050565b610b09610b77565b6001600160a01b038116610b6e5760405162461bcd60e51b815260206004820152602660248201527f4f776e61626c653a206e6577206f776e657220697320746865207a65726f206160448201526564647265737360d01b60648201526084016104dc565b61081581610bd1565b6001546001600160a01b0316331461035e5760405162461bcd60e51b815260206004820181905260248201527f4f776e61626c653a2063616c6c6572206973206e6f7420746865206f776e657260448201526064016104dc565b600180546001600160a01b038381166001600160a01b0319831681179093556040519116919082907f8be0079c531659141344cd1fd0a4f28419497f9722a3daafe3b4186f6b6457e090600090a35050565b60026000541415610c765760405162461bcd60e51b815260206004820152601f60248201527f5265656e7472616e637947756172643a207265656e7472616e742063616c6c0060448201526064016104dc565b6002600055565b6000610c898284610d39565b9392505050565b600060208284031215610ca257600080fd5b5035919050565b60008060008060808587031215610cbf57600080fd5b5050823594602084013594506040840135936060013592509050565b6001600160a01b038116811461081557600080fd5b60008060408385031215610d0357600080fd5b8235610d0e81610cdb565b946020939093013593505050565b600060208284031215610d2e57600080fd5b8135610c8981610cdb565b60008219821115610d5a57634e487b7160e01b600052601160045260246000fd5b50019056fea26469706673582212201302e55d23a63c881ce7edf3a00f1281897ee551973b47ed2a9ad2eb12c9e33364736f6c63430008090033",
  "devdoc": {
    "kind": "dev",
    "methods": {
      "owner()": {
        "details": "Returns the address of the current owner."
      },
      "renounceOwnership()": {
        "details": "Leaves the contract without owner. It will not be possible to call `onlyOwner` functions anymore. Can only be called by the current owner. NOTE: Renouncing ownership will leave the contract without an owner, thereby removing any functionality that is only available to the owner."
      },
      "transferOwnership(address)": {
        "details": "Transfers ownership of the contract to a new account (`newOwner`). Can only be called by the current owner."
      }
    },
    "version": 1
  },
  "userdoc": {
    "kind": "user",
    "methods": {},
    "version": 1
  },
  "storageLayout": {
    "storage": [
      {
        "astId": 123,
        "contract": "contracts/Marketplace.sol:Marketplace",
        "label": "_status",
        "offset": 0,
        "slot": "0",
        "type": "t_uint256"
      },
      {
        "astId": 7,
        "contract": "contracts/Marketplace.sol:Marketplace",
        "label": "_owner",
        "offset": 0,
        "slot": "1",
        "type": "t_address"
      },
      {
        "astId": 4662,
        "contract": "contracts/Marketplace.sol:Marketplace",
        "label": "_auctionIdCounter",
        "offset": 0,
        "slot": "2",
        "type": "t_struct(Counter)1737_storage"
      },
      {
        "astId": 4665,
        "contract": "contracts/Marketplace.sol:Marketplace",
        "label": "assetNftContract",
        "offset": 0,
        "slot": "3",
        "type": "t_contract(Fisch)3549"
      },
      {
        "astId": 4724,
        "contract": "contracts/Marketplace.sol:Marketplace",
        "label": "minimumBid",
        "offset": 0,
        "slot": "4",
        "type": "t_uint256"
      },
      {
        "astId": 4742,
        "contract": "contracts/Marketplace.sol:Marketplace",
        "label": "auctions",
        "offset": 0,
        "slot": "5",
        "type": "t_mapping(t_uint256,t_struct(Auction)4737_storage)"
      },
      {
        "astId": 4745,
        "contract": "contracts/Marketplace.sol:Marketplace",
        "label": "nextAuctionId",
        "offset": 0,
        "slot": "6",
        "type": "t_uint256"
      },
      {
        "astId": 4757,
        "contract": "contracts/Marketplace.sol:Marketplace",
        "label": "highestBids",
        "offset": 0,
        "slot": "7",
        "type": "t_mapping(t_uint256,t_struct(HighestBidder)4752_storage)"
      }
    ],
    "types": {
      "t_address": {
        "encoding": "inplace",
        "label": "address",
        "numberOfBytes": "20"
      },
      "t_bool": {
        "encoding": "inplace",
        "label": "bool",
        "numberOfBytes": "1"
      },
      "t_contract(Fisch)3549": {
        "encoding": "inplace",
        "label": "contract Fisch",
        "numberOfBytes": "20"
      },
      "t_mapping(t_uint256,t_struct(Auction)4737_storage)": {
        "encoding": "mapping",
        "key": "t_uint256",
        "label": "mapping(uint256 => struct Marketplace.Auction)",
        "numberOfBytes": "32",
        "value": "t_struct(Auction)4737_storage"
      },
      "t_mapping(t_uint256,t_struct(HighestBidder)4752_storage)": {
        "encoding": "mapping",
        "key": "t_uint256",
        "label": "mapping(uint256 => struct Marketplace.HighestBidder)",
        "numberOfBytes": "32",
        "value": "t_struct(HighestBidder)4752_storage"
      },
      "t_struct(Auction)4737_storage": {
        "encoding": "inplace",
        "label": "struct Marketplace.Auction",
        "members": [
          {
            "astId": 4726,
            "contract": "contracts/Marketplace.sol:Marketplace",
            "label": "tokenId",
            "offset": 0,
            "slot": "0",
            "type": "t_uint256"
          },
          {
            "astId": 4728,
            "contract": "contracts/Marketplace.sol:Marketplace",
            "label": "seller",
            "offset": 0,
            "slot": "1",
            "type": "t_address"
          },
          {
            "astId": 4730,
            "contract": "contracts/Marketplace.sol:Marketplace",
            "label": "startTime",
            "offset": 0,
            "slot": "2",
            "type": "t_uint256"
          },
          {
            "astId": 4732,
            "contract": "contracts/Marketplace.sol:Marketplace",
            "label": "endTime",
            "offset": 0,
            "slot": "3",
            "type": "t_uint256"
          },
          {
            "astId": 4734,
            "contract": "contracts/Marketplace.sol:Marketplace",
            "label": "reservePrice",
            "offset": 0,
            "slot": "4",
            "type": "t_uint256"
          },
          {
            "astId": 4736,
            "contract": "contracts/Marketplace.sol:Marketplace",
            "label": "started",
            "offset": 0,
            "slot": "5",
            "type": "t_bool"
          }
        ],
        "numberOfBytes": "192"
      },
      "t_struct(Counter)1737_storage": {
        "encoding": "inplace",
        "label": "struct Counters.Counter",
        "members": [
          {
            "astId": 1736,
            "contract": "contracts/Marketplace.sol:Marketplace",
            "label": "_value",
            "offset": 0,
            "slot": "0",
            "type": "t_uint256"
          }
        ],
        "numberOfBytes": "32"
      },
      "t_struct(HighestBidder)4752_storage": {
        "encoding": "inplace",
        "label": "struct Marketplace.HighestBidder",
        "members": [
          {
            "astId": 4747,
            "contract": "contracts/Marketplace.sol:Marketplace",
            "label": "bidder",
            "offset": 0,
            "slot": "0",
            "type": "t_address"
          },
          {
            "astId": 4749,
            "contract": "contracts/Marketplace.sol:Marketplace",
            "label": "bid",
            "offset": 0,
            "slot": "1",
            "type": "t_uint256"
          },
          {
            "astId": 4751,
            "contract": "contracts/Marketplace.sol:Marketplace",
            "label": "bidTime",
            "offset": 0,
            "slot": "2",
            "type": "t_uint256"
          }
        ],
        "numberOfBytes": "96"
      },
      "t_uint256": {
        "encoding": "inplace",
        "label": "uint256",
        "numberOfBytes": "32"
      }
    }
  }
}